{
  "_format": "hh-sol-artifact-1",
  "contractName": "RugPullFrens",
  "sourceName": "contracts/RugPullFrens.sol",
  "abi": [
    {
      "inputs": [],
      "stateMutability": "nonpayable",
      "type": "constructor"
    },
    {
      "anonymous": false,
      "inputs": [
        {
          "indexed": true,
          "internalType": "address",
          "name": "owner",
          "type": "address"
        },
        {
          "indexed": true,
          "internalType": "address",
          "name": "approved",
          "type": "address"
        },
        {
          "indexed": true,
          "internalType": "uint256",
          "name": "tokenId",
          "type": "uint256"
        }
      ],
      "name": "Approval",
      "type": "event"
    },
    {
      "anonymous": false,
      "inputs": [
        {
          "indexed": true,
          "internalType": "address",
          "name": "owner",
          "type": "address"
        },
        {
          "indexed": true,
          "internalType": "address",
          "name": "operator",
          "type": "address"
        },
        {
          "indexed": false,
          "internalType": "bool",
          "name": "approved",
          "type": "bool"
        }
      ],
      "name": "ApprovalForAll",
      "type": "event"
    },
    {
      "anonymous": false,
      "inputs": [
        {
          "indexed": false,
          "internalType": "address",
          "name": "owner",
          "type": "address"
        },
        {
          "indexed": false,
          "internalType": "uint256",
          "name": "numMint",
          "type": "uint256"
        },
        {
          "indexed": false,
          "internalType": "uint256",
          "name": "totalSupply",
          "type": "uint256"
        }
      ],
      "name": "FRENSMinted",
      "type": "event"
    },
    {
      "anonymous": false,
      "inputs": [
        {
          "indexed": false,
          "internalType": "bool",
          "name": "newIsBurnEnabled",
          "type": "bool"
        }
      ],
      "name": "IsBurnEnabledChanged",
      "type": "event"
    },
    {
      "anonymous": false,
      "inputs": [
        {
          "indexed": true,
          "internalType": "address",
          "name": "previousOwner",
          "type": "address"
        },
        {
          "indexed": true,
          "internalType": "address",
          "name": "newOwner",
          "type": "address"
        }
      ],
      "name": "OwnershipTransferred",
      "type": "event"
    },
    {
      "anonymous": false,
      "inputs": [
        {
          "indexed": true,
          "internalType": "address",
          "name": "from",
          "type": "address"
        },
        {
          "indexed": true,
          "internalType": "address",
          "name": "to",
          "type": "address"
        },
        {
          "indexed": true,
          "internalType": "uint256",
          "name": "tokenId",
          "type": "uint256"
        }
      ],
      "name": "Transfer",
      "type": "event"
    },
    {
      "anonymous": false,
      "inputs": [
        {
          "indexed": false,
          "internalType": "string",
          "name": "tokenURI",
          "type": "string"
        }
      ],
      "name": "URIChanged",
      "type": "event"
    },
    {
      "anonymous": false,
      "inputs": [
        {
          "indexed": false,
          "internalType": "uint256",
          "name": "newTokenPrice",
          "type": "uint256"
        }
      ],
      "name": "priceChanged",
      "type": "event"
    },
    {
      "anonymous": false,
      "inputs": [
        {
          "indexed": false,
          "internalType": "uint256",
          "name": "totalSupply",
          "type": "uint256"
        },
        {
          "indexed": false,
          "internalType": "uint256",
          "name": "maxMintLimitPerTX",
          "type": "uint256"
        }
      ],
      "name": "supplyChanged",
      "type": "event"
    },
    {
      "inputs": [],
      "name": "FREN_PRICE",
      "outputs": [
        {
          "internalType": "uint256",
          "name": "",
          "type": "uint256"
        }
      ],
      "stateMutability": "view",
      "type": "function"
    },
    {
      "inputs": [],
      "name": "MAX_FRENS",
      "outputs": [
        {
          "internalType": "uint256",
          "name": "",
          "type": "uint256"
        }
      ],
      "stateMutability": "view",
      "type": "function"
    },
    {
      "inputs": [],
      "name": "MAX_MINT_PER_TX",
      "outputs": [
        {
          "internalType": "uint256",
          "name": "",
          "type": "uint256"
        }
      ],
      "stateMutability": "view",
      "type": "function"
    },
    {
      "inputs": [],
      "name": "MINTED_RESERVED_FRENS",
      "outputs": [
        {
          "internalType": "uint256",
          "name": "",
          "type": "uint256"
        }
      ],
      "stateMutability": "view",
      "type": "function"
    },
    {
      "inputs": [],
      "name": "RESERVED_FRENS",
      "outputs": [
        {
          "internalType": "uint256",
          "name": "",
          "type": "uint256"
        }
      ],
      "stateMutability": "view",
      "type": "function"
    },
    {
      "inputs": [
        {
          "internalType": "address",
          "name": "to",
          "type": "address"
        },
        {
          "internalType": "uint256",
          "name": "tokenId",
          "type": "uint256"
        }
      ],
      "name": "approve",
      "outputs": [],
      "stateMutability": "nonpayable",
      "type": "function"
    },
    {
      "inputs": [
        {
          "internalType": "address",
          "name": "owner",
          "type": "address"
        }
      ],
      "name": "balanceOf",
      "outputs": [
        {
          "internalType": "uint256",
          "name": "",
          "type": "uint256"
        }
      ],
      "stateMutability": "view",
      "type": "function"
    },
    {
      "inputs": [
        {
          "internalType": "uint256",
          "name": "tokenId",
          "type": "uint256"
        }
      ],
      "name": "burn",
      "outputs": [],
      "stateMutability": "nonpayable",
      "type": "function"
    },
    {
      "inputs": [
        {
          "internalType": "uint256",
          "name": "quantity",
          "type": "uint256"
        },
        {
          "internalType": "address",
          "name": "addr",
          "type": "address"
        }
      ],
      "name": "claimReservedFrens",
      "outputs": [],
      "stateMutability": "nonpayable",
      "type": "function"
    },
    {
      "inputs": [
        {
          "internalType": "uint256",
          "name": "tokenId",
          "type": "uint256"
        }
      ],
      "name": "getApproved",
      "outputs": [
        {
          "internalType": "address",
          "name": "",
          "type": "address"
        }
      ],
      "stateMutability": "view",
      "type": "function"
    },
    {
      "inputs": [
        {
          "internalType": "address",
          "name": "owner",
          "type": "address"
        },
        {
          "internalType": "address",
          "name": "operator",
          "type": "address"
        }
      ],
      "name": "isApprovedForAll",
      "outputs": [
        {
          "internalType": "bool",
          "name": "",
          "type": "bool"
        }
      ],
      "stateMutability": "view",
      "type": "function"
    },
    {
      "inputs": [],
      "name": "isBurnEnabled",
      "outputs": [
        {
          "internalType": "bool",
          "name": "",
          "type": "bool"
        }
      ],
      "stateMutability": "view",
      "type": "function"
    },
    {
      "inputs": [],
      "name": "isPresaleActive",
      "outputs": [
        {
          "internalType": "bool",
          "name": "",
          "type": "bool"
        }
      ],
      "stateMutability": "view",
      "type": "function"
    },
    {
      "inputs": [
        {
          "internalType": "uint256",
          "name": "_MAX_CLAIM_FRENS_ON_PRESALE",
          "type": "uint256"
        },
        {
          "internalType": "uint256",
          "name": "_START_PRESALE_MINT_TIMESTAMP",
          "type": "uint256"
        },
        {
          "internalType": "bytes",
          "name": "_SIGNATURE",
          "type": "bytes"
        }
      ],
      "name": "isPresaleEligible",
      "outputs": [
        {
          "internalType": "bool",
          "name": "",
          "type": "bool"
        }
      ],
      "stateMutability": "view",
      "type": "function"
    },
    {
      "inputs": [],
      "name": "isPublicSaleActive",
      "outputs": [
        {
          "internalType": "bool",
          "name": "",
          "type": "bool"
        }
      ],
      "stateMutability": "view",
      "type": "function"
    },
    {
      "inputs": [
        {
          "internalType": "uint256",
          "name": "quantity",
          "type": "uint256"
        }
      ],
      "name": "mintFrens",
      "outputs": [],
      "stateMutability": "payable",
      "type": "function"
    },
    {
      "inputs": [
        {
          "internalType": "uint256",
          "name": "quantity",
          "type": "uint256"
        },
        {
          "internalType": "uint256",
          "name": "_MAX_CLAIM_FRENS_ON_PRESALE",
          "type": "uint256"
        },
        {
          "internalType": "uint256",
          "name": "_START_PRESALE_MINT_TIMESTAMP",
          "type": "uint256"
        },
        {
          "internalType": "bytes",
          "name": "_SIGNATURE",
          "type": "bytes"
        }
      ],
      "name": "mintPresaleFrens",
      "outputs": [],
      "stateMutability": "payable",
      "type": "function"
    },
    {
      "inputs": [],
      "name": "name",
      "outputs": [
        {
          "internalType": "string",
          "name": "",
          "type": "string"
        }
      ],
      "stateMutability": "view",
      "type": "function"
    },
    {
      "inputs": [],
      "name": "owner",
      "outputs": [
        {
          "internalType": "address",
          "name": "",
          "type": "address"
        }
      ],
      "stateMutability": "view",
      "type": "function"
    },
    {
      "inputs": [
        {
          "internalType": "uint256",
          "name": "quantity",
          "type": "uint256"
        },
        {
          "internalType": "address",
          "name": "addr",
          "type": "address"
        }
      ],
      "name": "ownerClaimFrens",
      "outputs": [],
      "stateMutability": "nonpayable",
      "type": "function"
    },
    {
      "inputs": [
        {
          "internalType": "uint256[]",
          "name": "id",
          "type": "uint256[]"
        },
        {
          "internalType": "address",
          "name": "addr",
          "type": "address"
        }
      ],
      "name": "ownerClaimFrensId",
      "outputs": [],
      "stateMutability": "nonpayable",
      "type": "function"
    },
    {
      "inputs": [
        {
          "internalType": "uint256",
          "name": "tokenId",
          "type": "uint256"
        }
      ],
      "name": "ownerOf",
      "outputs": [
        {
          "internalType": "address",
          "name": "",
          "type": "address"
        }
      ],
      "stateMutability": "view",
      "type": "function"
    },
    {
      "inputs": [
        {
          "internalType": "address",
          "name": "",
          "type": "address"
        }
      ],
      "name": "presaleClaimed",
      "outputs": [
        {
          "internalType": "uint256",
          "name": "",
          "type": "uint256"
        }
      ],
      "stateMutability": "view",
      "type": "function"
    },
    {
      "inputs": [],
      "name": "renounceOwnership",
      "outputs": [],
      "stateMutability": "nonpayable",
      "type": "function"
    },
    {
      "inputs": [
        {
          "internalType": "address",
          "name": "from",
          "type": "address"
        },
        {
          "internalType": "address",
          "name": "to",
          "type": "address"
        },
        {
          "internalType": "uint256",
          "name": "tokenId",
          "type": "uint256"
        }
      ],
      "name": "safeTransferFrom",
      "outputs": [],
      "stateMutability": "nonpayable",
      "type": "function"
    },
    {
      "inputs": [
        {
          "internalType": "address",
          "name": "from",
          "type": "address"
        },
        {
          "internalType": "address",
          "name": "to",
          "type": "address"
        },
        {
          "internalType": "uint256",
          "name": "tokenId",
          "type": "uint256"
        },
        {
          "internalType": "bytes",
          "name": "_data",
          "type": "bytes"
        }
      ],
      "name": "safeTransferFrom",
      "outputs": [],
      "stateMutability": "nonpayable",
      "type": "function"
    },
    {
      "inputs": [
        {
          "internalType": "address",
          "name": "operator",
          "type": "address"
        },
        {
          "internalType": "bool",
          "name": "approved",
          "type": "bool"
        }
      ],
      "name": "setApprovalForAll",
      "outputs": [],
      "stateMutability": "nonpayable",
      "type": "function"
    },
    {
      "inputs": [
        {
          "internalType": "bool",
          "name": "_isBurnEnabled",
          "type": "bool"
        }
      ],
      "name": "setIsBurnEnabled",
      "outputs": [],
      "stateMutability": "nonpayable",
      "type": "function"
    },
    {
      "inputs": [
        {
          "internalType": "uint256",
          "name": "_MINTED_RESERVED_FRENS",
          "type": "uint256"
        }
      ],
      "name": "setMintedReservedFrens",
      "outputs": [],
      "stateMutability": "nonpayable",
      "type": "function"
    },
    {
      "inputs": [
        {
          "internalType": "bool",
          "name": "_isPreSaleActive",
          "type": "bool"
        }
      ],
      "name": "setPresaleStatus",
      "outputs": [],
      "stateMutability": "nonpayable",
      "type": "function"
    },
    {
      "inputs": [
        {
          "internalType": "uint256",
          "name": "_FREN_PRICE",
          "type": "uint256"
        }
      ],
      "name": "setPrice",
      "outputs": [],
      "stateMutability": "nonpayable",
      "type": "function"
    },
    {
      "inputs": [
        {
          "internalType": "bool",
          "name": "_isPublicSaleActive",
          "type": "bool"
        },
        {
          "internalType": "uint256",
          "name": "_publicSaleStartTimestamp",
          "type": "uint256"
        }
      ],
      "name": "setPublicSale",
      "outputs": [],
      "stateMutability": "nonpayable",
      "type": "function"
    },
    {
      "inputs": [
        {
          "internalType": "uint256",
          "name": "_MAX_FRENS",
          "type": "uint256"
        },
        {
          "internalType": "uint256",
          "name": "_MAX_MINT_PER_TX",
          "type": "uint256"
        }
      ],
      "name": "setSupply",
      "outputs": [],
      "stateMutability": "nonpayable",
      "type": "function"
    },
    {
      "inputs": [
        {
          "internalType": "address",
          "name": "treasury",
          "type": "address"
        }
      ],
      "name": "setTreasury",
      "outputs": [],
      "stateMutability": "nonpayable",
      "type": "function"
    },
    {
      "inputs": [
        {
          "internalType": "string",
          "name": "__tokenURI",
          "type": "string"
        }
      ],
      "name": "setURI",
      "outputs": [],
      "stateMutability": "nonpayable",
      "type": "function"
    },
    {
      "inputs": [
        {
          "internalType": "bytes4",
          "name": "interfaceId",
          "type": "bytes4"
        }
      ],
      "name": "supportsInterface",
      "outputs": [
        {
          "internalType": "bool",
          "name": "",
          "type": "bool"
        }
      ],
      "stateMutability": "view",
      "type": "function"
    },
    {
      "inputs": [],
      "name": "symbol",
      "outputs": [
        {
          "internalType": "string",
          "name": "",
          "type": "string"
        }
      ],
      "stateMutability": "view",
      "type": "function"
    },
    {
      "inputs": [
        {
          "internalType": "uint256",
          "name": "index",
          "type": "uint256"
        }
      ],
      "name": "tokenByIndex",
      "outputs": [
        {
          "internalType": "uint256",
          "name": "",
          "type": "uint256"
        }
      ],
      "stateMutability": "view",
      "type": "function"
    },
    {
      "inputs": [
        {
          "internalType": "address",
          "name": "owner",
          "type": "address"
        },
        {
          "internalType": "uint256",
          "name": "index",
          "type": "uint256"
        }
      ],
      "name": "tokenOfOwnerByIndex",
      "outputs": [
        {
          "internalType": "uint256",
          "name": "",
          "type": "uint256"
        }
      ],
      "stateMutability": "view",
      "type": "function"
    },
    {
      "inputs": [
        {
          "internalType": "uint256",
          "name": "tokenId",
          "type": "uint256"
        }
      ],
      "name": "tokenURI",
      "outputs": [
        {
          "internalType": "string",
          "name": "",
          "type": "string"
        }
      ],
      "stateMutability": "view",
      "type": "function"
    },
    {
      "inputs": [
        {
          "internalType": "address",
          "name": "_owner",
          "type": "address"
        }
      ],
      "name": "tokensOfOwner",
      "outputs": [
        {
          "internalType": "uint256[]",
          "name": "",
          "type": "uint256[]"
        }
      ],
      "stateMutability": "view",
      "type": "function"
    },
    {
      "inputs": [],
      "name": "totalSupply",
      "outputs": [
        {
          "internalType": "uint256",
          "name": "",
          "type": "uint256"
        }
      ],
      "stateMutability": "view",
      "type": "function"
    },
    {
      "inputs": [
        {
          "internalType": "address",
          "name": "from",
          "type": "address"
        },
        {
          "internalType": "address",
          "name": "to",
          "type": "address"
        },
        {
          "internalType": "uint256",
          "name": "tokenId",
          "type": "uint256"
        }
      ],
      "name": "transferFrom",
      "outputs": [],
      "stateMutability": "nonpayable",
      "type": "function"
    },
    {
      "inputs": [
        {
          "internalType": "address",
          "name": "newOwner",
          "type": "address"
        }
      ],
      "name": "transferOwnership",
      "outputs": [],
      "stateMutability": "nonpayable",
      "type": "function"
    },
    {
      "inputs": [],
      "name": "withdraw",
      "outputs": [],
      "stateMutability": "nonpayable",
      "type": "function"
    }
  ],
  "bytecode": "0x6101406040526064600b556000600c8190556014600d55600e556361e91430600f55601080546001600160b81b03191673cbb11dea1eb91173f4bf3de34230ace8fa7400731790553480156200005457600080fd5b506040518060400160405280600c81526020016b52756750756c6c4672656e7360a01b815250604051806040016040528060058152602001640312e302e360dc1b8152506040518060400160405280600c81526020016b52756750756c6c4672656e7360a01b815250604051806040016040528060068152602001654e465431303160d01b8152508160009080519060200190620000f49291906200022b565b5080516200010a9060019060208401906200022b565b5050506200012762000121620001d560201b60201c565b620001d9565b815160208084019190912082518383012060e08290526101008190524660a0818152604080517f8b73c3c69bb8fe3d512ecc4cf759cc79239f7b179b0ffacaa9a75d522b39400f81880181905281830187905260608201869052608082019490945230818401528151808203909301835260c00190528051940193909320919290916080523060601b60c0526101205250506010805460ff60a81b1916600160a81b179055506200030e9050565b3390565b600a80546001600160a01b038381166001600160a01b0319831681179093556040519116919082907f8be0079c531659141344cd1fd0a4f28419497f9722a3daafe3b4186f6b6457e090600090a35050565b8280546200023990620002d1565b90600052602060002090601f0160209004810192826200025d5760008555620002a8565b82601f106200027857805160ff1916838001178555620002a8565b82800160010185558215620002a8579182015b82811115620002a85782518255916020019190600101906200028b565b50620002b6929150620002ba565b5090565b5b80821115620002b65760008155600101620002bb565b600181811c90821680620002e657607f821691505b602082108114156200030857634e487b7160e01b600052602260045260246000fd5b50919050565b60805160a05160c05160601c60e05161010051610120516137806200036160003960006125f4015260006126430152600061261e01526000612577015260006125a1015260006125cb01526137806000f3fe6080604052600436106102725760003560e01c806370a082311161014f578063b3c6214f116100c1578063e985e9c51161007a578063e985e9c514610732578063f0f442601461077b578063f2fde38b1461079b578063f7e78161146107bb578063f9765bc1146107d0578063fc784d49146107fd57600080fd5b8063b3c6214f14610689578063b88d4fde146106a9578063baa1e25a146106c9578063c87b56dd146106e9578063ce272ca014610709578063e69758a91461071f57600080fd5b80638da5cb5b116101135780638da5cb5b146105e05780638ecad721146105fe57806391b7f5ed1461061457806395d89b41146106345780639b69797d14610649578063a22cb4651461066957600080fd5b806370a0823114610548578063715018a6146105685780638462151c1461057d57806386073e14146105aa5780638895283f146105c057600080fd5b806342842e0e116101e857806358a2ea3e116101ac57806358a2ea3e1461049e57806360d938dc146104b15780636352211e146104d25780636dbb1ef2146104f25780636e0e5b19146105125780636e601f471461053257600080fd5b806342842e0e146103fe57806342966c681461041e578063476a30771461043e5780634dcbdefe1461045e5780634f6ccce71461047e57600080fd5b8063095ea7b31161023a578063095ea7b31461034957806318160ddd146103695780631e84c4131461038857806323b872dd146103a95780632f745c59146103c95780633ccfd60b146103e957600080fd5b806301ffc9a71461027757806302fe5305146102ac57806306fdde03146102ce57806307ebec27146102f0578063081812fc14610311575b600080fd5b34801561028357600080fd5b5061029761029236600461313b565b61081d565b60405190151581526020015b60405180910390f35b3480156102b857600080fd5b506102cc6102c7366004613175565b610848565b005b3480156102da57600080fd5b506102e36108c5565b6040516102a39190613476565b3480156102fc57600080fd5b5060105461029790600160b01b900460ff1681565b34801561031d57600080fd5b5061033161032c3660046131e7565b610957565b6040516001600160a01b0390911681526020016102a3565b34801561035557600080fd5b506102cc61036436600461301b565b6109ec565b34801561037557600080fd5b506008545b6040519081526020016102a3565b34801561039457600080fd5b5060105461029790600160a81b900460ff1681565b3480156103b557600080fd5b506102cc6103c4366004612f4d565b610b02565b3480156103d557600080fd5b5061037a6103e436600461301b565b610b33565b3480156103f557600080fd5b506102cc610bc9565b34801561040a57600080fd5b506102cc610419366004612f4d565b610c2f565b34801561042a57600080fd5b506102cc6104393660046131e7565b610c4a565b34801561044a57600080fd5b506102cc610459366004613200565b610ceb565b34801561046a57600080fd5b50610297610479366004613245565b610e12565b34801561048a57600080fd5b5061037a6104993660046131e7565b610ebb565b6102cc6104ac3660046131e7565b610f4e565b3480156104bd57600080fd5b5060105461029790600160a01b900460ff1681565b3480156104de57600080fd5b506103316104ed3660046131e7565b6111ef565b3480156104fe57600080fd5b506102cc61050d3660046131e7565b611266565b34801561051e57600080fd5b506102cc61052d366004613104565b611295565b34801561053e57600080fd5b5061037a600c5481565b34801561055457600080fd5b5061037a610563366004612ef8565b61130c565b34801561057457600080fd5b506102cc611393565b34801561058957600080fd5b5061059d610598366004612ef8565b6113c9565b6040516102a39190613403565b3480156105b657600080fd5b5061037a600e5481565b3480156105cc57600080fd5b506102cc6105db366004613104565b611488565b3480156105ec57600080fd5b50600a546001600160a01b0316610331565b34801561060a57600080fd5b5061037a600d5481565b34801561062057600080fd5b506102cc61062f3660046131e7565b611531565b34801561064057600080fd5b506102e3611590565b34801561065557600080fd5b506102cc610664366004613200565b61159f565b34801561067557600080fd5b506102cc610684366004612ff1565b611646565b34801561069557600080fd5b506102cc6106a436600461311f565b611655565b3480156106b557600080fd5b506102cc6106c4366004612f89565b61170f565b3480156106d557600080fd5b506102cc6106e4366004613045565b611747565b3480156106f557600080fd5b506102e36107043660046131e7565b6117b2565b34801561071557600080fd5b5061037a600b5481565b6102cc61072d366004613295565b61183e565b34801561073e57600080fd5b5061029761074d366004612f1a565b6001600160a01b03918216600090815260056020908152604080832093909416825291909152205460ff1690565b34801561078757600080fd5b506102cc610796366004612ef8565b611b63565b3480156107a757600080fd5b506102cc6107b6366004612ef8565b611bfc565b3480156107c757600080fd5b5061037a600081565b3480156107dc57600080fd5b5061037a6107eb366004612ef8565b60116020526000908152604090205481565b34801561080957600080fd5b506102cc610818366004613223565b611c94565b60006001600160e01b0319821663780e9d6360e01b1480610842575061084282611da2565b92915050565b600a546001600160a01b0316331461087b5760405162461bcd60e51b815260040161087290613507565b60405180910390fd5b61088760128383612dc3565b507fbd06d92759c326896ec0f7c3a981e801ae4644e020f89b2a198909b692df0ddd82826040516108b9929190613447565b60405180910390a15050565b6060600080546108d49061364c565b80601f01602080910402602001604051908101604052809291908181526020018280546109009061364c565b801561094d5780601f106109225761010080835404028352916020019161094d565b820191906000526020600020905b81548152906001019060200180831161093057829003601f168201915b5050505050905090565b6000818152600260205260408120546001600160a01b03166109d05760405162461bcd60e51b815260206004820152602c60248201527f4552433732313a20617070726f76656420717565727920666f72206e6f6e657860448201526b34b9ba32b73a103a37b5b2b760a11b6064820152608401610872565b506000908152600460205260409020546001600160a01b031690565b60006109f7826111ef565b9050806001600160a01b0316836001600160a01b03161415610a655760405162461bcd60e51b815260206004820152602160248201527f4552433732313a20617070726f76616c20746f2063757272656e74206f776e656044820152603960f91b6064820152608401610872565b336001600160a01b0382161480610a815750610a81813361074d565b610af35760405162461bcd60e51b815260206004820152603860248201527f4552433732313a20617070726f76652063616c6c6572206973206e6f74206f7760448201527f6e6572206e6f7220617070726f76656420666f7220616c6c00000000000000006064820152608401610872565b610afd8383611df2565b505050565b610b0c3382611e60565b610b285760405162461bcd60e51b81526004016108729061353c565b610afd838383611f57565b6000610b3e8361130c565b8210610ba05760405162461bcd60e51b815260206004820152602b60248201527f455243373231456e756d657261626c653a206f776e657220696e646578206f7560448201526a74206f6620626f756e647360a81b6064820152608401610872565b506001600160a01b03919091166000908152600660209081526040808320938352929052205490565b600a546001600160a01b03163314610bf35760405162461bcd60e51b815260040161087290613507565b6010546040516001600160a01b03909116904780156108fc02916000818181858888f19350505050158015610c2c573d6000803e3d6000fd5b50565b610afd8383836040518060200160405280600081525061170f565b601054600160b01b900460ff16610c935760405162461bcd60e51b815260206004820152600d60248201526c1095549397d11254d050931151609a1b6044820152606401610872565b610c9d3382611e60565b610ce25760405162461bcd60e51b81526020600482015260166024820152752727aa2fa0aaaa2427a924ad22a22faa27afa12aa92760511b6044820152606401610872565b610c2c81612102565b600a546001600160a01b03163314610d155760405162461bcd60e51b815260040161087290613507565b600082600c54610d2591906135be565b1115610d7d5760405162461bcd60e51b815260206004820152602160248201527f455843454544535f535550504c595f464f525f52455345525645445f4652454e6044820152605360f81b6064820152608401610872565b60005b82811015610dc0576001600c6000828254610d9b91906135be565b92505081905550610dae82600c546121a9565b80610db881613681565b915050610d80565b507fa8c04b003a2ce612e951b41961fa7612bcfa18e3c926f40969453d15f17d14e88183610ded60085490565b604080516001600160a01b0390941684526020840192909252908201526060016108b9565b600080610e8a610e847f185a08d6737efab5e2d5291f0d02ada215facd0ea205e4a59c261869d94cf7da336040805160208101939093526001600160a01b0390911690820152606081018890526080810187905260a001604051602081830303815290604052805190602001206121c3565b84612211565b9050806001600160a01b0316610ea8600a546001600160a01b031690565b6001600160a01b03161495945050505050565b6000610ec660085490565b8210610f295760405162461bcd60e51b815260206004820152602c60248201527f455243373231456e756d657261626c653a20676c6f62616c20696e646578206f60448201526b7574206f6620626f756e647360a01b6064820152608401610872565b60088281548110610f3c57610f3c613708565b90600052602060002001549050919050565b601054600160a81b900460ff16610fa05760405162461bcd60e51b81526020600482015260166024820152755055424c49435f53414c455f4e4f545f41435449564560501b6044820152606401610872565b600f54421015610ff25760405162461bcd60e51b815260206004820152601760248201527f5055424c49435f53414c455f4e4f545f535441525445440000000000000000006044820152606401610872565b3233146110365760405162461bcd60e51b815260206004820152601260248201527110d05313115497d254d7d0d3d395149050d560721b6044820152606401610872565b6000811180156110485750600d548111155b6110a05760405162461bcd60e51b8152602060048201526024808201527f455843454544535f4d41585f4d494e545f5045525f54585f4f525f42454c4f576044820152635f4f4e4560e01b6064820152608401610872565b600c546000600b546110b29190613609565b6110bc91906135be565b816110c660085490565b6110d091906135be565b11156110ee5760405162461bcd60e51b8152600401610872906134db565b3481600e546110fd91906135ea565b146111435760405162461bcd60e51b815260206004820152601660248201527553454e44494e475f494e56414c49445f45544845525360501b6044820152606401610872565b60005b8181101561119657611184336000600c5461116060085490565b61116a9190613609565b61117491906135be565b61117f9060016135be565b6121a9565b8061118e81613681565b915050611146565b507fa8c04b003a2ce612e951b41961fa7612bcfa18e3c926f40969453d15f17d14e833826111c360085490565b604080516001600160a01b0390941684526020840192909252908201526060015b60405180910390a150565b6000818152600260205260408120546001600160a01b0316806108425760405162461bcd60e51b815260206004820152602960248201527f4552433732313a206f776e657220717565727920666f72206e6f6e657869737460448201526832b73a103a37b5b2b760b91b6064820152608401610872565b600a546001600160a01b031633146112905760405162461bcd60e51b815260040161087290613507565b600c55565b600a546001600160a01b031633146112bf5760405162461bcd60e51b815260040161087290613507565b60108054821515600160b01b0260ff60b01b199091161790556040517f430864ad215aa849052adf33b0cae7eb033aa8a4f9cf45fb3973699038505ff3906111e490831515815260200190565b60006001600160a01b0382166113775760405162461bcd60e51b815260206004820152602a60248201527f4552433732313a2062616c616e636520717565727920666f7220746865207a65604482015269726f206164647265737360b01b6064820152608401610872565b506001600160a01b031660009081526003602052604090205490565b600a546001600160a01b031633146113bd5760405162461bcd60e51b815260040161087290613507565b6113c7600061222d565b565b606060006113d68361130c565b9050806113f75760408051600080825260208201909252905b509392505050565b60008167ffffffffffffffff8111156114125761141261371e565b60405190808252806020026020018201604052801561143b578160200160208202803683370190505b50905060005b828110156113ef576114538582610b33565b82828151811061146557611465613708565b60209081029190910101528061147a81613681565b915050611441565b50919050565b600a546001600160a01b031633146114b25760405162461bcd60e51b815260040161087290613507565b60105460ff600160a01b90910416151581151514156115135760405162461bcd60e51b815260206004820152601860248201527f53455454494e475f544f5f43555252454e545f535441544500000000000000006044820152606401610872565b60108054911515600160a01b0260ff60a01b19909216919091179055565b600a546001600160a01b0316331461155b5760405162461bcd60e51b815260040161087290613507565b600e8190556040518181527ff5fdf7223faf019b846dd0f35f25876f2b97118d4f6e9d6787ea6d85a55c2143906020016111e4565b6060600180546108d49061364c565b600a546001600160a01b031633146115c95760405162461bcd60e51b815260040161087290613507565b600c546000600b546115db9190613609565b6115e591906135be565b826115ef60085490565b6115f991906135be565b11156116175760405162461bcd60e51b8152600401610872906134db565b60005b82811015610dc057611634826000600c5461116060085490565b8061163e81613681565b91505061161a565b61165133838361227f565b5050565b600a546001600160a01b0316331461167f5760405162461bcd60e51b815260040161087290613507565b60105460ff600160a81b9091041615158215151415806116a1575080600f5414155b6116ed5760405162461bcd60e51b815260206004820152601e60248201527f5055424c49435f53414c455f434f4e4649475f49535f5448455f53414d4500006044820152606401610872565b60108054921515600160a81b0260ff60a81b1990931692909217909155600f55565b6117193383611e60565b6117355760405162461bcd60e51b81526004016108729061353c565b6117418484848461234e565b50505050565b600a546001600160a01b031633146117715760405162461bcd60e51b815260040161087290613507565b60005b8251811015610afd576117a08284838151811061179357611793613708565b60200260200101516121a9565b806117aa81613681565b915050611774565b6000818152600260205260409020546060906001600160a01b031661180c5760405162461bcd60e51b815260206004820152601060248201526f544f4b454e5f4e4f545f45584953545360801b6044820152606401610872565b601261181783612381565b60405160200161182892919061331f565b6040516020818303038152906040529050919050565b601054600160a01b900460ff1661188c5760405162461bcd60e51b815260206004820152601260248201527150524553414c455f4e4f545f41435449564560701b6044820152606401610872565b3233146118d05760405162461bcd60e51b815260206004820152601260248201527110d05313115497d254d7d0d3d395149050d560721b6044820152606401610872565b6118db838383610e12565b6119275760405162461bcd60e51b815260206004820152601860248201527f4e4f545f454c494749424c455f464f525f50524553414c4500000000000000006044820152606401610872565b814210156119855760405162461bcd60e51b815260206004820152602560248201527f594f55525f50524553414c455f4d494e54494e475f54494d455f4e4f545f5354604482015264105495115160da1b6064820152608401610872565b6000841180156119b057503360009081526011602052604090205483906119ad9086906135be565b11155b611a115760405162461bcd60e51b815260206004820152602c60248201527f455843454544535f4d41585f434c41494d45445f4e554d5f4f4e5f414444525f60448201526b4f525f42454c4f575f4f4e4560a01b6064820152608401610872565b3484600e54611a2091906135ea565b14611a665760405162461bcd60e51b815260206004820152601660248201527553454e44494e475f494e56414c49445f45544845525360501b6044820152606401610872565b600c546000600b54611a789190613609565b611a8291906135be565b84611a8c60085490565b611a9691906135be565b1115611ab45760405162461bcd60e51b8152600401610872906134db565b60005b84811015611ae357611ad1336000600c5461116060085490565b80611adb81613681565b915050611ab7565b503360009081526011602052604081208054869290611b039084906135be565b909155507fa8c04b003a2ce612e951b41961fa7612bcfa18e3c926f40969453d15f17d14e890503385611b3560085490565b604080516001600160a01b03909416845260208401929092529082015260600160405180910390a150505050565b600a546001600160a01b03163314611b8d5760405162461bcd60e51b815260040161087290613507565b6001600160a01b038116611bda5760405162461bcd60e51b815260206004820152601460248201527353455454494e475f5a45524f5f4144445245535360601b6044820152606401610872565b601080546001600160a01b0319166001600160a01b0392909216919091179055565b600a546001600160a01b03163314611c265760405162461bcd60e51b815260040161087290613507565b6001600160a01b038116611c8b5760405162461bcd60e51b815260206004820152602660248201527f4f776e61626c653a206e6577206f776e657220697320746865207a65726f206160448201526564647265737360d01b6064820152608401610872565b610c2c8161222d565b601054600160a81b900460ff1615611ce65760405162461bcd60e51b81526020600482015260156024820152745055424c49435f53414c455f49535f41435449564560581b6044820152606401610872565b601054600160a01b900460ff1615611d385760405162461bcd60e51b81526020600482015260156024820152745055424c49435f53414c455f49535f41435449564560581b6044820152606401610872565b600a546001600160a01b03163314611d625760405162461bcd60e51b815260040161087290613507565b600b829055600d81905560408051838152602081018390527ff3d20f759840df3438a4c66026405d3bad138c7fdcc391532952daaba07f789591016108b9565b60006001600160e01b031982166380ac58cd60e01b1480611dd357506001600160e01b03198216635b5e139f60e01b145b8061084257506301ffc9a760e01b6001600160e01b0319831614610842565b600081815260046020526040902080546001600160a01b0319166001600160a01b0384169081179091558190611e27826111ef565b6001600160a01b03167f8c5be1e5ebec7d5bd14f71427d1e84f3dd0314c0f7b2291e5b200ac8c7c3b92560405160405180910390a45050565b6000818152600260205260408120546001600160a01b0316611ed95760405162461bcd60e51b815260206004820152602c60248201527f4552433732313a206f70657261746f7220717565727920666f72206e6f6e657860448201526b34b9ba32b73a103a37b5b2b760a11b6064820152608401610872565b6000611ee4836111ef565b9050806001600160a01b0316846001600160a01b03161480611f1f5750836001600160a01b0316611f1484610957565b6001600160a01b0316145b80611f4f57506001600160a01b0380821660009081526005602090815260408083209388168352929052205460ff165b949350505050565b826001600160a01b0316611f6a826111ef565b6001600160a01b031614611fd25760405162461bcd60e51b815260206004820152602960248201527f4552433732313a207472616e73666572206f6620746f6b656e2074686174206960448201526839903737ba1037bbb760b91b6064820152608401610872565b6001600160a01b0382166120345760405162461bcd60e51b8152602060048201526024808201527f4552433732313a207472616e7366657220746f20746865207a65726f206164646044820152637265737360e01b6064820152608401610872565b61203f83838361247f565b61204a600082611df2565b6001600160a01b0383166000908152600360205260408120805460019290612073908490613609565b90915550506001600160a01b03821660009081526003602052604081208054600192906120a19084906135be565b909155505060008181526002602052604080822080546001600160a01b0319166001600160a01b0386811691821790925591518493918716917fddf252ad1be2c89b69c2b068fc378daa952ba7f163c4a11628f55a4df523b3ef91a4505050565b600061210d826111ef565b905061211b8160008461247f565b612126600083611df2565b6001600160a01b038116600090815260036020526040812080546001929061214f908490613609565b909155505060008281526002602052604080822080546001600160a01b0319169055518391906001600160a01b038416907fddf252ad1be2c89b69c2b068fc378daa952ba7f163c4a11628f55a4df523b3ef908390a45050565b611651828260405180602001604052806000815250612537565b60006108426121d061256a565b8360405161190160f01b6020820152602281018390526042810182905260009060620160405160208183030381529060405280519060200120905092915050565b60008060006122208585612691565b915091506113ef81612701565b600a80546001600160a01b038381166001600160a01b0319831681179093556040519116919082907f8be0079c531659141344cd1fd0a4f28419497f9722a3daafe3b4186f6b6457e090600090a35050565b816001600160a01b0316836001600160a01b031614156122e15760405162461bcd60e51b815260206004820152601960248201527f4552433732313a20617070726f766520746f2063616c6c6572000000000000006044820152606401610872565b6001600160a01b03838116600081815260056020908152604080832094871680845294825291829020805460ff191686151590811790915591519182527f17307eab39ab6107e8899845ad3d59bd9653f200f220920489ca2b5937696c31910160405180910390a3505050565b612359848484611f57565b612365848484846128bc565b6117415760405162461bcd60e51b815260040161087290613489565b6060816123a55750506040805180820190915260018152600360fc1b602082015290565b8160005b81156123cf57806123b981613681565b91506123c89050600a836135d6565b91506123a9565b60008167ffffffffffffffff8111156123ea576123ea61371e565b6040519080825280601f01601f191660200182016040528015612414576020820181803683370190505b5090505b8415611f4f57612429600183613609565b9150612436600a8661369c565b6124419060306135be565b60f81b81838151811061245657612456613708565b60200101906001600160f81b031916908160001a905350612478600a866135d6565b9450612418565b6001600160a01b0383166124da576124d581600880546000838152600960205260408120829055600182018355919091527ff3f7a9fe364faab93b216da50a3214154f22a0a2b415b23a84c8169e8b636ee30155565b6124fd565b816001600160a01b0316836001600160a01b0316146124fd576124fd83826129c9565b6001600160a01b03821661251457610afd81612a66565b826001600160a01b0316826001600160a01b031614610afd57610afd8282612b15565b6125418383612b59565b61254e60008484846128bc565b610afd5760405162461bcd60e51b815260040161087290613489565b6000306001600160a01b037f0000000000000000000000000000000000000000000000000000000000000000161480156125c357507f000000000000000000000000000000000000000000000000000000000000000046145b156125ed57507f000000000000000000000000000000000000000000000000000000000000000090565b50604080517f00000000000000000000000000000000000000000000000000000000000000006020808301919091527f0000000000000000000000000000000000000000000000000000000000000000828401527f000000000000000000000000000000000000000000000000000000000000000060608301524660808301523060a0808401919091528351808403909101815260c0909201909252805191012090565b6000808251604114156126c85760208301516040840151606085015160001a6126bc87828585612ca7565b945094505050506126fa565b8251604014156126f257602083015160408401516126e7868383612d94565b9350935050506126fa565b506000905060025b9250929050565b6000816004811115612715576127156136dc565b141561271e5750565b6001816004811115612732576127326136dc565b14156127805760405162461bcd60e51b815260206004820152601860248201527f45434453413a20696e76616c6964207369676e617475726500000000000000006044820152606401610872565b6002816004811115612794576127946136dc565b14156127e25760405162461bcd60e51b815260206004820152601f60248201527f45434453413a20696e76616c6964207369676e6174757265206c656e677468006044820152606401610872565b60038160048111156127f6576127f66136dc565b141561284f5760405162461bcd60e51b815260206004820152602260248201527f45434453413a20696e76616c6964207369676e6174757265202773272076616c604482015261756560f01b6064820152608401610872565b6004816004811115612863576128636136dc565b1415610c2c5760405162461bcd60e51b815260206004820152602260248201527f45434453413a20696e76616c6964207369676e6174757265202776272076616c604482015261756560f01b6064820152608401610872565b60006001600160a01b0384163b156129be57604051630a85bd0160e11b81526001600160a01b0385169063150b7a02906129009033908990889088906004016133c6565b602060405180830381600087803b15801561291a57600080fd5b505af192505050801561294a575060408051601f3d908101601f1916820190925261294791810190613158565b60015b6129a4573d808015612978576040519150601f19603f3d011682016040523d82523d6000602084013e61297d565b606091505b50805161299c5760405162461bcd60e51b815260040161087290613489565b805181602001fd5b6001600160e01b031916630a85bd0160e11b149050611f4f565b506001949350505050565b600060016129d68461130c565b6129e09190613609565b600083815260076020526040902054909150808214612a33576001600160a01b03841660009081526006602090815260408083208584528252808320548484528184208190558352600790915290208190555b5060009182526007602090815260408084208490556001600160a01b039094168352600681528383209183525290812055565b600854600090612a7890600190613609565b60008381526009602052604081205460088054939450909284908110612aa057612aa0613708565b906000526020600020015490508060088381548110612ac157612ac1613708565b6000918252602080832090910192909255828152600990915260408082208490558582528120556008805480612af957612af96136f2565b6001900381819060005260206000200160009055905550505050565b6000612b208361130c565b6001600160a01b039093166000908152600660209081526040808320868452825280832085905593825260079052919091209190915550565b6001600160a01b038216612baf5760405162461bcd60e51b815260206004820181905260248201527f4552433732313a206d696e7420746f20746865207a65726f20616464726573736044820152606401610872565b6000818152600260205260409020546001600160a01b031615612c145760405162461bcd60e51b815260206004820152601c60248201527f4552433732313a20746f6b656e20616c7265616479206d696e746564000000006044820152606401610872565b612c206000838361247f565b6001600160a01b0382166000908152600360205260408120805460019290612c499084906135be565b909155505060008181526002602052604080822080546001600160a01b0319166001600160a01b03861690811790915590518392907fddf252ad1be2c89b69c2b068fc378daa952ba7f163c4a11628f55a4df523b3ef908290a45050565b6000807f7fffffffffffffffffffffffffffffff5d576e7357a4501ddfe92f46681b20a0831115612cde5750600090506003612d8b565b8460ff16601b14158015612cf657508460ff16601c14155b15612d075750600090506004612d8b565b6040805160008082526020820180845289905260ff881692820192909252606081018690526080810185905260019060a0016020604051602081039080840390855afa158015612d5b573d6000803e3d6000fd5b5050604051601f1901519150506001600160a01b038116612d8457600060019250925050612d8b565b9150600090505b94509492505050565b6000806001600160ff1b03831660ff84901c601b01612db587828885612ca7565b935093505050935093915050565b828054612dcf9061364c565b90600052602060002090601f016020900481019282612df15760008555612e37565b82601f10612e0a5782800160ff19823516178555612e37565b82800160010185558215612e37579182015b82811115612e37578235825591602001919060010190612e1c565b50612e43929150612e47565b5090565b5b80821115612e435760008155600101612e48565b80356001600160a01b0381168114612e7357600080fd5b919050565b80358015158114612e7357600080fd5b600082601f830112612e9957600080fd5b813567ffffffffffffffff811115612eb357612eb361371e565b612ec6601f8201601f191660200161358d565b818152846020838601011115612edb57600080fd5b816020850160208301376000918101602001919091529392505050565b600060208284031215612f0a57600080fd5b612f1382612e5c565b9392505050565b60008060408385031215612f2d57600080fd5b612f3683612e5c565b9150612f4460208401612e5c565b90509250929050565b600080600060608486031215612f6257600080fd5b612f6b84612e5c565b9250612f7960208501612e5c565b9150604084013590509250925092565b60008060008060808587031215612f9f57600080fd5b612fa885612e5c565b9350612fb660208601612e5c565b925060408501359150606085013567ffffffffffffffff811115612fd957600080fd5b612fe587828801612e88565b91505092959194509250565b6000806040838503121561300457600080fd5b61300d83612e5c565b9150612f4460208401612e78565b6000806040838503121561302e57600080fd5b61303783612e5c565b946020939093013593505050565b6000806040838503121561305857600080fd5b823567ffffffffffffffff8082111561307057600080fd5b818501915085601f83011261308457600080fd5b81356020828211156130985761309861371e565b8160051b92506130a981840161358d565b8281528181019085830185870184018b10156130c457600080fd5b600096505b848710156130e75780358352600196909601959183019183016130c9565b5096506130f79050878201612e5c565b9450505050509250929050565b60006020828403121561311657600080fd5b612f1382612e78565b6000806040838503121561313257600080fd5b61303783612e78565b60006020828403121561314d57600080fd5b8135612f1381613734565b60006020828403121561316a57600080fd5b8151612f1381613734565b6000806020838503121561318857600080fd5b823567ffffffffffffffff808211156131a057600080fd5b818501915085601f8301126131b457600080fd5b8135818111156131c357600080fd5b8660208285010111156131d557600080fd5b60209290920196919550909350505050565b6000602082840312156131f957600080fd5b5035919050565b6000806040838503121561321357600080fd5b82359150612f4460208401612e5c565b6000806040838503121561323657600080fd5b50508035926020909101359150565b60008060006060848603121561325a57600080fd5b8335925060208401359150604084013567ffffffffffffffff81111561327f57600080fd5b61328b86828701612e88565b9150509250925092565b600080600080608085870312156132ab57600080fd5b843593506020850135925060408501359150606085013567ffffffffffffffff811115612fd957600080fd5b600081518084526132ef816020860160208601613620565b601f01601f19169290920160200192915050565b60008151613315818560208601613620565b9290920192915050565b600080845481600182811c91508083168061333b57607f831692505b602080841082141561335b57634e487b7160e01b86526022600452602486fd5b81801561336f5760018114613380576133ad565b60ff198616895284890196506133ad565b60008b81526020902060005b868110156133a55781548b82015290850190830161338c565b505084890196505b5050505050506133bd8185613303565b95945050505050565b6001600160a01b03858116825284166020820152604081018390526080606082018190526000906133f9908301846132d7565b9695505050505050565b6020808252825182820181905260009190848201906040850190845b8181101561343b5783518352928401929184019160010161341f565b50909695505050505050565b60208152816020820152818360408301376000818301604090810191909152601f909201601f19160101919050565b602081526000612f1360208301846132d7565b60208082526032908201527f4552433732313a207472616e7366657220746f206e6f6e20455243373231526560408201527131b2b4bb32b91034b6b83632b6b2b73a32b960711b606082015260800190565b602080825260129082015271455843454544535f4d41585f535550504c5960701b604082015260600190565b6020808252818101527f4f776e61626c653a2063616c6c6572206973206e6f7420746865206f776e6572604082015260600190565b60208082526031908201527f4552433732313a207472616e736665722063616c6c6572206973206e6f74206f6040820152701ddb995c881b9bdc88185c1c1c9bdd9959607a1b606082015260800190565b604051601f8201601f1916810167ffffffffffffffff811182821017156135b6576135b661371e565b604052919050565b600082198211156135d1576135d16136b0565b500190565b6000826135e5576135e56136c6565b500490565b6000816000190483118215151615613604576136046136b0565b500290565b60008282101561361b5761361b6136b0565b500390565b60005b8381101561363b578181015183820152602001613623565b838111156117415750506000910152565b600181811c9082168061366057607f821691505b6020821081141561148257634e487b7160e01b600052602260045260246000fd5b6000600019821415613695576136956136b0565b5060010190565b6000826136ab576136ab6136c6565b500690565b634e487b7160e01b600052601160045260246000fd5b634e487b7160e01b600052601260045260246000fd5b634e487b7160e01b600052602160045260246000fd5b634e487b7160e01b600052603160045260246000fd5b634e487b7160e01b600052603260045260246000fd5b634e487b7160e01b600052604160045260246000fd5b6001600160e01b031981168114610c2c57600080fdfea26469706673582212205578f738728b7d70c56c35f001c06bb993b5ce1072c9cbec71d5008e1391fcff64736f6c63430008070033",
  "linkReferences": {},
  "deployedLinkReferences": {}
}