{
  "_format": "hh-sol-artifact-1",
  "contractName": "MurMurCat",
  "sourceName": "contracts/MurMurCat.sol",
  "abi": [
    {
      "inputs": [],
      "stateMutability": "nonpayable",
      "type": "constructor"
    },
    {
      "anonymous": false,
      "inputs": [
        {
          "indexed": true,
          "internalType": "address",
          "name": "owner",
          "type": "address"
        },
        {
          "indexed": true,
          "internalType": "address",
          "name": "approved",
          "type": "address"
        },
        {
          "indexed": true,
          "internalType": "uint256",
          "name": "tokenId",
          "type": "uint256"
        }
      ],
      "name": "Approval",
      "type": "event"
    },
    {
      "anonymous": false,
      "inputs": [
        {
          "indexed": true,
          "internalType": "address",
          "name": "owner",
          "type": "address"
        },
        {
          "indexed": true,
          "internalType": "address",
          "name": "operator",
          "type": "address"
        },
        {
          "indexed": false,
          "internalType": "bool",
          "name": "approved",
          "type": "bool"
        }
      ],
      "name": "ApprovalForAll",
      "type": "event"
    },
    {
      "anonymous": false,
      "inputs": [
        {
          "indexed": false,
          "internalType": "string",
          "name": "baseTokenURI",
          "type": "string"
        }
      ],
      "name": "BaseTokenURIChanged",
      "type": "event"
    },
    {
      "anonymous": false,
      "inputs": [
        {
          "indexed": false,
          "internalType": "address",
          "name": "owner",
          "type": "address"
        },
        {
          "indexed": false,
          "internalType": "uint256",
          "name": "numMint",
          "type": "uint256"
        },
        {
          "indexed": false,
          "internalType": "uint256",
          "name": "totalSupply",
          "type": "uint256"
        }
      ],
      "name": "CATSMinted",
      "type": "event"
    },
    {
      "anonymous": false,
      "inputs": [
        {
          "indexed": true,
          "internalType": "address",
          "name": "previousOwner",
          "type": "address"
        },
        {
          "indexed": true,
          "internalType": "address",
          "name": "newOwner",
          "type": "address"
        }
      ],
      "name": "OwnershipTransferred",
      "type": "event"
    },
    {
      "anonymous": false,
      "inputs": [
        {
          "indexed": true,
          "internalType": "address",
          "name": "from",
          "type": "address"
        },
        {
          "indexed": true,
          "internalType": "address",
          "name": "to",
          "type": "address"
        },
        {
          "indexed": true,
          "internalType": "uint256",
          "name": "tokenId",
          "type": "uint256"
        }
      ],
      "name": "Transfer",
      "type": "event"
    },
    {
      "anonymous": false,
      "inputs": [
        {
          "indexed": false,
          "internalType": "string",
          "name": "tokenURI",
          "type": "string"
        }
      ],
      "name": "URIChanged",
      "type": "event"
    },
    {
      "anonymous": false,
      "inputs": [
        {
          "indexed": false,
          "internalType": "uint256",
          "name": "newTokenPrice",
          "type": "uint256"
        }
      ],
      "name": "priceChanged",
      "type": "event"
    },
    {
      "anonymous": false,
      "inputs": [
        {
          "indexed": false,
          "internalType": "uint256",
          "name": "totalSupply",
          "type": "uint256"
        },
        {
          "indexed": false,
          "internalType": "uint256",
          "name": "tierSupply",
          "type": "uint256"
        },
        {
          "indexed": false,
          "internalType": "uint256",
          "name": "maxMintLimitPerTX",
          "type": "uint256"
        }
      ],
      "name": "supplyChanged",
      "type": "event"
    },
    {
      "inputs": [],
      "name": "CAT_PRICE",
      "outputs": [
        {
          "internalType": "uint256",
          "name": "",
          "type": "uint256"
        }
      ],
      "stateMutability": "view",
      "type": "function"
    },
    {
      "inputs": [],
      "name": "MAX_CATS",
      "outputs": [
        {
          "internalType": "uint256",
          "name": "",
          "type": "uint256"
        }
      ],
      "stateMutability": "view",
      "type": "function"
    },
    {
      "inputs": [],
      "name": "MAX_CATS_ON_TIER_SALE",
      "outputs": [
        {
          "internalType": "uint256",
          "name": "",
          "type": "uint256"
        }
      ],
      "stateMutability": "view",
      "type": "function"
    },
    {
      "inputs": [],
      "name": "MAX_MINT_PER_TX",
      "outputs": [
        {
          "internalType": "uint256",
          "name": "",
          "type": "uint256"
        }
      ],
      "stateMutability": "view",
      "type": "function"
    },
    {
      "inputs": [
        {
          "internalType": "address",
          "name": "to",
          "type": "address"
        },
        {
          "internalType": "uint256",
          "name": "tokenId",
          "type": "uint256"
        }
      ],
      "name": "approve",
      "outputs": [],
      "stateMutability": "nonpayable",
      "type": "function"
    },
    {
      "inputs": [],
      "name": "auctionEndPrice",
      "outputs": [
        {
          "internalType": "uint256",
          "name": "",
          "type": "uint256"
        }
      ],
      "stateMutability": "view",
      "type": "function"
    },
    {
      "inputs": [],
      "name": "auctionPriceStep",
      "outputs": [
        {
          "internalType": "uint256",
          "name": "",
          "type": "uint256"
        }
      ],
      "stateMutability": "view",
      "type": "function"
    },
    {
      "inputs": [],
      "name": "auctionStartPrice",
      "outputs": [
        {
          "internalType": "uint256",
          "name": "",
          "type": "uint256"
        }
      ],
      "stateMutability": "view",
      "type": "function"
    },
    {
      "inputs": [],
      "name": "auctionStartTimestamp",
      "outputs": [
        {
          "internalType": "uint256",
          "name": "",
          "type": "uint256"
        }
      ],
      "stateMutability": "view",
      "type": "function"
    },
    {
      "inputs": [],
      "name": "auctionStepNumber",
      "outputs": [
        {
          "internalType": "uint256",
          "name": "",
          "type": "uint256"
        }
      ],
      "stateMutability": "view",
      "type": "function"
    },
    {
      "inputs": [],
      "name": "auctionTimeStep",
      "outputs": [
        {
          "internalType": "uint256",
          "name": "",
          "type": "uint256"
        }
      ],
      "stateMutability": "view",
      "type": "function"
    },
    {
      "inputs": [
        {
          "internalType": "address",
          "name": "owner",
          "type": "address"
        }
      ],
      "name": "balanceOf",
      "outputs": [
        {
          "internalType": "uint256",
          "name": "",
          "type": "uint256"
        }
      ],
      "stateMutability": "view",
      "type": "function"
    },
    {
      "inputs": [
        {
          "internalType": "uint256",
          "name": "tokenId",
          "type": "uint256"
        }
      ],
      "name": "burn",
      "outputs": [],
      "stateMutability": "nonpayable",
      "type": "function"
    },
    {
      "inputs": [
        {
          "internalType": "uint256",
          "name": "tokenId",
          "type": "uint256"
        }
      ],
      "name": "getApproved",
      "outputs": [
        {
          "internalType": "address",
          "name": "",
          "type": "address"
        }
      ],
      "stateMutability": "view",
      "type": "function"
    },
    {
      "inputs": [],
      "name": "getDutchAuctionPrice",
      "outputs": [
        {
          "internalType": "uint256",
          "name": "",
          "type": "uint256"
        }
      ],
      "stateMutability": "view",
      "type": "function"
    },
    {
      "inputs": [
        {
          "internalType": "address",
          "name": "owner",
          "type": "address"
        },
        {
          "internalType": "address",
          "name": "operator",
          "type": "address"
        }
      ],
      "name": "isApprovedForAll",
      "outputs": [
        {
          "internalType": "bool",
          "name": "",
          "type": "bool"
        }
      ],
      "stateMutability": "view",
      "type": "function"
    },
    {
      "inputs": [],
      "name": "isDutchAuctionActive",
      "outputs": [
        {
          "internalType": "bool",
          "name": "",
          "type": "bool"
        }
      ],
      "stateMutability": "view",
      "type": "function"
    },
    {
      "inputs": [],
      "name": "isLimitedSaleActive",
      "outputs": [
        {
          "internalType": "bool",
          "name": "",
          "type": "bool"
        }
      ],
      "stateMutability": "view",
      "type": "function"
    },
    {
      "inputs": [
        {
          "internalType": "uint256",
          "name": "_START_MINT_TIMESTAMP",
          "type": "uint256"
        },
        {
          "internalType": "uint256",
          "name": "_STOP_MINT_TIMESTAMP",
          "type": "uint256"
        },
        {
          "internalType": "bytes",
          "name": "_SIGNATURE",
          "type": "bytes"
        }
      ],
      "name": "isLimitedSaleEligible",
      "outputs": [
        {
          "internalType": "bool",
          "name": "",
          "type": "bool"
        }
      ],
      "stateMutability": "view",
      "type": "function"
    },
    {
      "inputs": [],
      "name": "isPublicSaleActive",
      "outputs": [
        {
          "internalType": "bool",
          "name": "",
          "type": "bool"
        }
      ],
      "stateMutability": "view",
      "type": "function"
    },
    {
      "inputs": [],
      "name": "isWhiteListSaleActive",
      "outputs": [
        {
          "internalType": "bool",
          "name": "",
          "type": "bool"
        }
      ],
      "stateMutability": "view",
      "type": "function"
    },
    {
      "inputs": [
        {
          "internalType": "uint256",
          "name": "_MAX_CLAIMED_ON_WHITELIST_SALE",
          "type": "uint256"
        },
        {
          "internalType": "uint256",
          "name": "_START_MINT_TIMESTAMP",
          "type": "uint256"
        },
        {
          "internalType": "uint256",
          "name": "_STOP_MINT_TIMESTAMP",
          "type": "uint256"
        },
        {
          "internalType": "bytes",
          "name": "_SIGNATURE",
          "type": "bytes"
        }
      ],
      "name": "isWhiteListSaleEligible",
      "outputs": [
        {
          "internalType": "bool",
          "name": "",
          "type": "bool"
        }
      ],
      "stateMutability": "view",
      "type": "function"
    },
    {
      "inputs": [
        {
          "internalType": "uint256",
          "name": "quantity",
          "type": "uint256"
        }
      ],
      "name": "mintDutchAuctionCATS",
      "outputs": [],
      "stateMutability": "payable",
      "type": "function"
    },
    {
      "inputs": [
        {
          "internalType": "uint256",
          "name": "_START_MINT_TIMESTAMP",
          "type": "uint256"
        },
        {
          "internalType": "uint256",
          "name": "_STOP_MINT_TIMESTAMP",
          "type": "uint256"
        },
        {
          "internalType": "bytes",
          "name": "_SIGNATURE",
          "type": "bytes"
        }
      ],
      "name": "mintLimitedSaleCAT",
      "outputs": [],
      "stateMutability": "payable",
      "type": "function"
    },
    {
      "inputs": [
        {
          "internalType": "uint256",
          "name": "quantity",
          "type": "uint256"
        }
      ],
      "name": "mintPublicSaleCATS",
      "outputs": [],
      "stateMutability": "payable",
      "type": "function"
    },
    {
      "inputs": [
        {
          "internalType": "uint256",
          "name": "quantity",
          "type": "uint256"
        },
        {
          "internalType": "uint256",
          "name": "_MAX_CLAIMED_ON_WHITELIST_SALE",
          "type": "uint256"
        },
        {
          "internalType": "uint256",
          "name": "_START_MINT_TIMESTAMP",
          "type": "uint256"
        },
        {
          "internalType": "uint256",
          "name": "_STOP_MINT_TIMESTAMP",
          "type": "uint256"
        },
        {
          "internalType": "bytes",
          "name": "_SIGNATURE",
          "type": "bytes"
        }
      ],
      "name": "mintWhiteListSaleCATS",
      "outputs": [],
      "stateMutability": "payable",
      "type": "function"
    },
    {
      "inputs": [],
      "name": "name",
      "outputs": [
        {
          "internalType": "string",
          "name": "",
          "type": "string"
        }
      ],
      "stateMutability": "view",
      "type": "function"
    },
    {
      "inputs": [],
      "name": "owner",
      "outputs": [
        {
          "internalType": "address",
          "name": "",
          "type": "address"
        }
      ],
      "stateMutability": "view",
      "type": "function"
    },
    {
      "inputs": [
        {
          "internalType": "uint256",
          "name": "quantity",
          "type": "uint256"
        },
        {
          "internalType": "address",
          "name": "addr",
          "type": "address"
        }
      ],
      "name": "ownerClaimCATS",
      "outputs": [],
      "stateMutability": "nonpayable",
      "type": "function"
    },
    {
      "inputs": [
        {
          "internalType": "uint256[]",
          "name": "id",
          "type": "uint256[]"
        },
        {
          "internalType": "address",
          "name": "addr",
          "type": "address"
        }
      ],
      "name": "ownerClaimCATSId",
      "outputs": [],
      "stateMutability": "nonpayable",
      "type": "function"
    },
    {
      "inputs": [
        {
          "internalType": "uint256",
          "name": "tokenId",
          "type": "uint256"
        }
      ],
      "name": "ownerOf",
      "outputs": [
        {
          "internalType": "address",
          "name": "",
          "type": "address"
        }
      ],
      "stateMutability": "view",
      "type": "function"
    },
    {
      "inputs": [],
      "name": "renounceOwnership",
      "outputs": [],
      "stateMutability": "nonpayable",
      "type": "function"
    },
    {
      "inputs": [
        {
          "internalType": "address",
          "name": "from",
          "type": "address"
        },
        {
          "internalType": "address",
          "name": "to",
          "type": "address"
        },
        {
          "internalType": "uint256",
          "name": "tokenId",
          "type": "uint256"
        }
      ],
      "name": "safeTransferFrom",
      "outputs": [],
      "stateMutability": "nonpayable",
      "type": "function"
    },
    {
      "inputs": [
        {
          "internalType": "address",
          "name": "from",
          "type": "address"
        },
        {
          "internalType": "address",
          "name": "to",
          "type": "address"
        },
        {
          "internalType": "uint256",
          "name": "tokenId",
          "type": "uint256"
        },
        {
          "internalType": "bytes",
          "name": "_data",
          "type": "bytes"
        }
      ],
      "name": "safeTransferFrom",
      "outputs": [],
      "stateMutability": "nonpayable",
      "type": "function"
    },
    {
      "inputs": [],
      "name": "saleStartTimestamp",
      "outputs": [
        {
          "internalType": "uint256",
          "name": "",
          "type": "uint256"
        }
      ],
      "stateMutability": "view",
      "type": "function"
    },
    {
      "inputs": [],
      "name": "saleStopTimestamp",
      "outputs": [
        {
          "internalType": "uint256",
          "name": "",
          "type": "uint256"
        }
      ],
      "stateMutability": "view",
      "type": "function"
    },
    {
      "inputs": [
        {
          "internalType": "address",
          "name": "operator",
          "type": "address"
        },
        {
          "internalType": "bool",
          "name": "approved",
          "type": "bool"
        }
      ],
      "name": "setApprovalForAll",
      "outputs": [],
      "stateMutability": "nonpayable",
      "type": "function"
    },
    {
      "inputs": [
        {
          "internalType": "uint256",
          "name": "_auctionStartTimestamp",
          "type": "uint256"
        },
        {
          "internalType": "uint256",
          "name": "_auctionTimeStep",
          "type": "uint256"
        },
        {
          "internalType": "uint256",
          "name": "_auctionStartPrice",
          "type": "uint256"
        },
        {
          "internalType": "uint256",
          "name": "_auctionEndPrice",
          "type": "uint256"
        },
        {
          "internalType": "uint256",
          "name": "_auctionPriceStep",
          "type": "uint256"
        },
        {
          "internalType": "uint256",
          "name": "_auctionStepNumber",
          "type": "uint256"
        }
      ],
      "name": "setDutchAuction",
      "outputs": [],
      "stateMutability": "nonpayable",
      "type": "function"
    },
    {
      "inputs": [
        {
          "internalType": "bool",
          "name": "_isDutchAuctionActive",
          "type": "bool"
        }
      ],
      "name": "setDutchAuctionStatus",
      "outputs": [],
      "stateMutability": "nonpayable",
      "type": "function"
    },
    {
      "inputs": [
        {
          "internalType": "bool",
          "name": "_isLimitedSaleActive",
          "type": "bool"
        }
      ],
      "name": "setLimitedSaleStatus",
      "outputs": [],
      "stateMutability": "nonpayable",
      "type": "function"
    },
    {
      "inputs": [
        {
          "internalType": "uint256",
          "name": "_MAX_CATS",
          "type": "uint256"
        }
      ],
      "name": "setMaxSupply",
      "outputs": [],
      "stateMutability": "nonpayable",
      "type": "function"
    },
    {
      "inputs": [
        {
          "internalType": "uint256",
          "name": "_CAT_PRICE",
          "type": "uint256"
        }
      ],
      "name": "setPrice",
      "outputs": [],
      "stateMutability": "nonpayable",
      "type": "function"
    },
    {
      "inputs": [
        {
          "internalType": "bool",
          "name": "_isPublicSaleActive",
          "type": "bool"
        },
        {
          "internalType": "uint256",
          "name": "_saleStartTimestamp",
          "type": "uint256"
        },
        {
          "internalType": "uint256",
          "name": "_saleStopTimestamp",
          "type": "uint256"
        }
      ],
      "name": "setPublicSale",
      "outputs": [],
      "stateMutability": "nonpayable",
      "type": "function"
    },
    {
      "inputs": [
        {
          "internalType": "address",
          "name": "__signer",
          "type": "address"
        }
      ],
      "name": "setSigner",
      "outputs": [],
      "stateMutability": "nonpayable",
      "type": "function"
    },
    {
      "inputs": [
        {
          "internalType": "uint256",
          "name": "_MAX_CATS_ON_TIER_SALE",
          "type": "uint256"
        },
        {
          "internalType": "uint256",
          "name": "_MAX_MINT_PER_TX",
          "type": "uint256"
        }
      ],
      "name": "setTierSupply",
      "outputs": [],
      "stateMutability": "nonpayable",
      "type": "function"
    },
    {
      "inputs": [
        {
          "internalType": "address",
          "name": "__treasury",
          "type": "address"
        }
      ],
      "name": "setTreasury",
      "outputs": [],
      "stateMutability": "nonpayable",
      "type": "function"
    },
    {
      "inputs": [
        {
          "internalType": "string",
          "name": "__tokenURI",
          "type": "string"
        }
      ],
      "name": "setURI",
      "outputs": [],
      "stateMutability": "nonpayable",
      "type": "function"
    },
    {
      "inputs": [
        {
          "internalType": "bool",
          "name": "_isWhiteListSaleActive",
          "type": "bool"
        }
      ],
      "name": "setWhiteListSaleStatus",
      "outputs": [],
      "stateMutability": "nonpayable",
      "type": "function"
    },
    {
      "inputs": [
        {
          "internalType": "bytes4",
          "name": "interfaceId",
          "type": "bytes4"
        }
      ],
      "name": "supportsInterface",
      "outputs": [
        {
          "internalType": "bool",
          "name": "",
          "type": "bool"
        }
      ],
      "stateMutability": "view",
      "type": "function"
    },
    {
      "inputs": [],
      "name": "symbol",
      "outputs": [
        {
          "internalType": "string",
          "name": "",
          "type": "string"
        }
      ],
      "stateMutability": "view",
      "type": "function"
    },
    {
      "inputs": [
        {
          "internalType": "uint256",
          "name": "index",
          "type": "uint256"
        }
      ],
      "name": "tokenByIndex",
      "outputs": [
        {
          "internalType": "uint256",
          "name": "",
          "type": "uint256"
        }
      ],
      "stateMutability": "view",
      "type": "function"
    },
    {
      "inputs": [
        {
          "internalType": "address",
          "name": "owner",
          "type": "address"
        },
        {
          "internalType": "uint256",
          "name": "index",
          "type": "uint256"
        }
      ],
      "name": "tokenOfOwnerByIndex",
      "outputs": [
        {
          "internalType": "uint256",
          "name": "",
          "type": "uint256"
        }
      ],
      "stateMutability": "view",
      "type": "function"
    },
    {
      "inputs": [
        {
          "internalType": "uint256",
          "name": "tokenId",
          "type": "uint256"
        }
      ],
      "name": "tokenURI",
      "outputs": [
        {
          "internalType": "string",
          "name": "",
          "type": "string"
        }
      ],
      "stateMutability": "view",
      "type": "function"
    },
    {
      "inputs": [
        {
          "internalType": "address",
          "name": "_owner",
          "type": "address"
        }
      ],
      "name": "tokensOfOwner",
      "outputs": [
        {
          "internalType": "uint256[]",
          "name": "",
          "type": "uint256[]"
        }
      ],
      "stateMutability": "view",
      "type": "function"
    },
    {
      "inputs": [],
      "name": "totalSupply",
      "outputs": [
        {
          "internalType": "uint256",
          "name": "",
          "type": "uint256"
        }
      ],
      "stateMutability": "view",
      "type": "function"
    },
    {
      "inputs": [
        {
          "internalType": "address",
          "name": "from",
          "type": "address"
        },
        {
          "internalType": "address",
          "name": "to",
          "type": "address"
        },
        {
          "internalType": "uint256",
          "name": "tokenId",
          "type": "uint256"
        }
      ],
      "name": "transferFrom",
      "outputs": [],
      "stateMutability": "nonpayable",
      "type": "function"
    },
    {
      "inputs": [
        {
          "internalType": "address",
          "name": "newOwner",
          "type": "address"
        }
      ],
      "name": "transferOwnership",
      "outputs": [],
      "stateMutability": "nonpayable",
      "type": "function"
    },
    {
      "inputs": [
        {
          "internalType": "address",
          "name": "",
          "type": "address"
        }
      ],
      "name": "whiteListSaleClaimed",
      "outputs": [
        {
          "internalType": "uint256",
          "name": "",
          "type": "uint256"
        }
      ],
      "stateMutability": "view",
      "type": "function"
    },
    {
      "inputs": [],
      "name": "withdraw",
      "outputs": [],
      "stateMutability": "nonpayable",
      "type": "function"
    }
  ],
  "bytecode": "0x6101406040526103e7600b5560c7600c556003600d5567016345785d8a0000600e556361d95614600f556361d960a0601055601780546001600160a01b03191673ba53c6831b496c8a40c02a3c2d1366dfc6503f4e179055601880546001600160c01b031916760101003e7f691772793b62fefd968ead095330f6cfa4cf1790553480156200008d57600080fd5b506040518060400160405280600a8152602001694d75724d75724361747360b01b815250604051806040016040528060058152602001640312e302e360dc1b8152506040518060400160405280600a8152602001694d75724d75724361747360b01b815250604051806040016040528060038152602001624d4d4360e81b8152508160009080519060200190620001269291906200024a565b5080516200013c9060019060208401906200024a565b5050506200015962000153620001f460201b60201c565b620001f8565b815160208084019190912082518383012060e08290526101008190524660a0818152604080517f8b73c3c69bb8fe3d512ecc4cf759cc79239f7b179b0ffacaa9a75d522b39400f81880181905281830187905260608201869052608082019490945230818401528151808203909301835260c00190528051940193909320919290916080523060601b60c05261012052506200032d92505050565b3390565b600a80546001600160a01b038381166001600160a01b0319831681179093556040519116919082907f8be0079c531659141344cd1fd0a4f28419497f9722a3daafe3b4186f6b6457e090600090a35050565b8280546200025890620002f0565b90600052602060002090601f0160209004810192826200027c5760008555620002c7565b82601f106200029757805160ff1916838001178555620002c7565b82800160010185558215620002c7579182015b82811115620002c7578251825591602001919060010190620002aa565b50620002d5929150620002d9565b5090565b5b80821115620002d55760008155600101620002da565b600181811c908216806200030557607f821691505b602082108114156200032757634e487b7160e01b600052602260045260246000fd5b50919050565b60805160a05160c05160601c60e0516101005161012051614094620003806000396000612d6a01526000612db901526000612d9401526000612ced01526000612d1701526000612d4101526140946000f3fe60806040526004361061038b5760003560e01c80636f8b44b0116101dc578063b88d4fde11610102578063e095cb37116100a0578063f22b1ea31161006f578063f22b1ea314610a0a578063f2b575bb14610a2a578063f2fde38b14610a57578063fc7d215c14610a7757600080fd5b8063e095cb3714610960578063e7e4346514610981578063e985e9c5146109a1578063f0f44260146109ea57600080fd5b8063c6a96c8f116100dc578063c6a96c8f146108f4578063c87b56dd1461090a578063d55690cc1461092a578063d756985b1461094a57600080fd5b8063b88d4fde14610894578063b9640493146108b4578063c669cc50146108d457600080fd5b80639196eba51161017a578063964dd24011610149578063964dd24014610828578063a04a6ac81461083e578063a22cb46514610854578063a7d37a781461087457600080fd5b80639196eba5146107c757806391b7f5ed146107dd578063920c03c8146107fd57806395d89b411461081357600080fd5b80638462151c116101b65780638462151c146107535780638d8950e7146107805780638da5cb5b146107935780638ecad721146107b157600080fd5b80636f8b44b0146106fe57806370a082311461071e578063715018a61461073e57600080fd5b80633c276d86116102c15780634b30a9101161025f5780636352211e1161022e5780636352211e1461068b57806368433d73146106ab5780636b74b1f4146106cb5780636c19e783146106de57600080fd5b80634b30a910146106165780634e7ea76c1461062b5780634f6ccce71461064b5780635450577a1461066b57600080fd5b806342966c681161029b57806342966c681461059f5780634415f498146105bf57806345ecfb17146105df5780634698a3d81461060057600080fd5b80633c276d86146105545780633ccfd60b1461056a57806342842e0e1461057f57600080fd5b80631a8a36441161032e5780631e84c413116103085780631e84c413146104e057806323b872dd146105015780632f745c591461052157806333209b531461054157600080fd5b80631a8a3644146104935780631e2def3a146104b45780631e2fa5cd146104ca57600080fd5b806306fdde031161036a57806306fdde03146103fa578063081812fc1461041c578063095ea7b31461045457806318160ddd1461047457600080fd5b80625457591461039057806301ffc9a7146103a557806302fe5305146103da575b600080fd5b6103a361039e366004613968565b610a8d565b005b3480156103b157600080fd5b506103c56103c03660046138bc565b610c9e565b60405190151581526020015b60405180910390f35b3480156103e657600080fd5b506103a36103f53660046138f6565b610cc9565b34801561040657600080fd5b5061040f610d31565b6040516103d19190613cbf565b34801561042857600080fd5b5061043c610437366004613968565b610dc3565b6040516001600160a01b0390911681526020016103d1565b34801561046057600080fd5b506103a361046f366004613785565b610e58565b34801561048057600080fd5b506008545b6040519081526020016103d1565b34801561049f57600080fd5b506018546103c590600160b01b900460ff1681565b3480156104c057600080fd5b5061048560105481565b3480156104d657600080fd5b50610485600b5481565b3480156104ec57600080fd5b506018546103c590600160a81b900460ff1681565b34801561050d57600080fd5b506103a361051c3660046136b7565b610f6e565b34801561052d57600080fd5b5061048561053c366004613785565b610f9f565b6103a361054f3660046139c6565b611035565b34801561056057600080fd5b50610485600f5481565b34801561057657600080fd5b506103a3611298565b34801561058b57600080fd5b506103a361059a3660046136b7565b6112fe565b3480156105ab57600080fd5b506103a36105ba366004613968565b611319565b3480156105cb57600080fd5b506103a36105da3660046139a4565b61134c565b3480156105eb57600080fd5b506018546103c590600160a01b900460ff1681565b34801561060c57600080fd5b5061048560155481565b34801561062257600080fd5b50610485611412565b34801561063757600080fd5b506103a36106463660046137af565b6114ea565b34801561065757600080fd5b50610485610666366004613968565b611555565b34801561067757600080fd5b506103c5610686366004613a16565b6115e8565b34801561069757600080fd5b5061043c6106a6366004613968565b611685565b3480156106b757600080fd5b506103a36106c6366004613981565b6116fc565b6103a36106d9366004613a58565b6117e7565b3480156106ea57600080fd5b506103a36106f9366004613662565b611abf565b34801561070a57600080fd5b506103a3610719366004613968565b611bb0565b34801561072a57600080fd5b50610485610739366004613662565b611c28565b34801561074a57600080fd5b506103a3611caf565b34801561075f57600080fd5b5061077361076e366004613662565b611ce5565b6040516103d19190613c4c565b6103a361078e366004613968565b611da4565b34801561079f57600080fd5b50600a546001600160a01b031661043c565b3480156107bd57600080fd5b50610485600d5481565b3480156107d357600080fd5b5061048560125481565b3480156107e957600080fd5b506103a36107f8366004613968565b611f55565b34801561080957600080fd5b50610485600c5481565b34801561081f57600080fd5b5061040f611fb4565b34801561083457600080fd5b5061048560165481565b34801561084a57600080fd5b5061048560145481565b34801561086057600080fd5b506103a361086f36600461375b565b611fc3565b34801561088057600080fd5b506103a361088f366004613889565b611fd2565b3480156108a057600080fd5b506103a36108af3660046136f3565b6120a7565b3480156108c057600080fd5b506103a36108cf36600461386e565b6120df565b3480156108e057600080fd5b506103a36108ef36600461386e565b612158565b34801561090057600080fd5b5061048560115481565b34801561091657600080fd5b5061040f610925366004613968565b6121d1565b34801561093657600080fd5b506103a361094536600461386e565b61225d565b34801561095657600080fd5b5061048560135481565b34801561096c57600080fd5b506018546103c590600160b81b900460ff1681565b34801561098d57600080fd5b506103a361099c366004613abc565b6122d6565b3480156109ad57600080fd5b506103c56109bc366004613684565b6001600160a01b03918216600090815260056020908152604080832093909416825291909152205460ff1690565b3480156109f657600080fd5b506103a3610a05366004613662565b61231d565b348015610a1657600080fd5b506103c5610a253660046139c6565b61240e565b348015610a3657600080fd5b50610485610a45366004613662565b60196020526000908152604090205481565b348015610a6357600080fd5b506103a3610a72366004613662565b612484565b348015610a8357600080fd5b50610485600e5481565b601854600160a81b900460ff16610ae45760405162461bcd60e51b81526020600482015260166024820152755055424c49435f53414c455f4e4f545f41435449564560501b60448201526064015b60405180910390fd5b600f544210158015610af857506010544211155b610b445760405162461bcd60e51b815260206004820152601760248201527f4e4f545f494e5f5055424c49435f53414c455f54494d450000000000000000006044820152606401610adb565b323314610b635760405162461bcd60e51b8152600401610adb90613e04565b600081118015610b755750600d548111155b610b915760405162461bcd60e51b8152600401610adb90613d8b565b600c5481610b9e60085490565b610ba89190613eb2565b1115610c055760405162461bcd60e51b815260206004820152602660248201527f455843454544535f4d41585f434c41494d45445f4e554d5f4f4e5f5055424c49604482015265435f53414c4560d01b6064820152608401610adb565b3481600e54610c149190613ede565b14610c315760405162461bcd60e51b8152600401610adb90613d5b565b6000610c3c60085490565b905060005b82811015610c7057610c5e3383610c5781613f75565b945061251c565b80610c6881613f75565b915050610c41565b5060008051602061403f833981519152338383604051610c9293929190613c2b565b60405180910390a15050565b60006001600160e01b0319821663780e9d6360e01b1480610cc35750610cc382612536565b92915050565b600a546001600160a01b03163314610cf35760405162461bcd60e51b8152600401610adb90613dcf565b610cff601a8383613536565b507fbd06d92759c326896ec0f7c3a981e801ae4644e020f89b2a198909b692df0ddd8282604051610c92929190613c90565b606060008054610d4090613f40565b80601f0160208091040260200160405190810160405280929190818152602001828054610d6c90613f40565b8015610db95780601f10610d8e57610100808354040283529160200191610db9565b820191906000526020600020905b815481529060010190602001808311610d9c57829003601f168201915b5050505050905090565b6000818152600260205260408120546001600160a01b0316610e3c5760405162461bcd60e51b815260206004820152602c60248201527f4552433732313a20617070726f76656420717565727920666f72206e6f6e657860448201526b34b9ba32b73a103a37b5b2b760a11b6064820152608401610adb565b506000908152600460205260409020546001600160a01b031690565b6000610e6382611685565b9050806001600160a01b0316836001600160a01b03161415610ed15760405162461bcd60e51b815260206004820152602160248201527f4552433732313a20617070726f76616c20746f2063757272656e74206f776e656044820152603960f91b6064820152608401610adb565b336001600160a01b0382161480610eed5750610eed81336109bc565b610f5f5760405162461bcd60e51b815260206004820152603860248201527f4552433732313a20617070726f76652063616c6c6572206973206e6f74206f7760448201527f6e6572206e6f7220617070726f76656420666f7220616c6c00000000000000006064820152608401610adb565b610f698383612586565b505050565b610f7833826125f4565b610f945760405162461bcd60e51b8152600401610adb90613e30565b610f698383836126e7565b6000610faa83611c28565b821061100c5760405162461bcd60e51b815260206004820152602b60248201527f455243373231456e756d657261626c653a206f776e657220696e646578206f7560448201526a74206f6620626f756e647360a81b6064820152608401610adb565b506001600160a01b03919091166000908152600660209081526040808320938352929052205490565b601854600160b01b900460ff1661108e5760405162461bcd60e51b815260206004820152601760248201527f4c494d495445445f53414c455f4e4f545f4143544956450000000000000000006044820152606401610adb565b3233146110ad5760405162461bcd60e51b8152600401610adb90613e04565b6110b883838361240e565b6111045760405162461bcd60e51b815260206004820152601d60248201527f4e4f545f454c494749424c455f464f525f4c494d495445445f53414c450000006044820152606401610adb565b8242101580156111145750814211155b6111605760405162461bcd60e51b815260206004820181905260248201527f4e4f545f4f4e5f4c494d495445445f53414c455f4d494e54494e475f54494d456044820152606401610adb565b61116933611c28565b156111b65760405162461bcd60e51b815260206004820152601c60248201527f414c52454144595f484156455f434154535f4f4e5f41444452455353000000006044820152606401610adb565b600c546008546111c7906001613eb2565b11156112255760405162461bcd60e51b815260206004820152602760248201527f455843454544535f4d41585f434c41494d45445f4e554d5f4f4e5f4c494d495460448201526645445f53414c4560c81b6064820152608401610adb565b34600e54146112465760405162461bcd60e51b8152600401610adb90613d5b565b600061125160085490565b9050611268338261126181613f75565b935061251c565b60008051602061403f8339815191523360018360405161128a93929190613c2b565b60405180910390a150505050565b600a546001600160a01b031633146112c25760405162461bcd60e51b8152600401610adb90613dcf565b6017546040516001600160a01b03909116904780156108fc02916000818181858888f193505050501580156112fb573d6000803e3d6000fd5b50565b610f69838383604051806020016040528060008152506120a7565b600a546001600160a01b031633146113435760405162461bcd60e51b8152600401610adb90613dcf565b6112fb81612892565b600a546001600160a01b031633146113765760405162461bcd60e51b8152600401610adb90613dcf565b600b548211156113c85760405162461bcd60e51b815260206004820152601c60248201527f544945525f535550504c595f455843454544535f4d41585f43415453000000006044820152606401610adb565b600c829055600d819055600b54604080519182526020820184905281018290527fcbed1efd05e1ca8a50ca2a71081d8da8d6df9fe55e1bd1ec4636ec7825ad9d4490606001610c92565b601854600090600160b81b900460ff166114695760405162461bcd60e51b815260206004820152601860248201527744555443485f41554354494f4e5f4e4f545f41435449564560401b6044820152606401610adb565b60115442101561147a575060135490565b60006012546011544261148d9190613efd565b6114979190613eca565b90506016548111156114a857506016545b6015546114b59082613ede565b60135411156114de576015546114cb9082613ede565b6013546114d89190613efd565b91505090565b505060145490565b5090565b600a546001600160a01b031633146115145760405162461bcd60e51b8152600401610adb90613dcf565b60005b8251811015610f69576115438284838151811061153657611536613ffc565b602002602001015161251c565b8061154d81613f75565b915050611517565b600061156060085490565b82106115c35760405162461bcd60e51b815260206004820152602c60248201527f455243373231456e756d657261626c653a20676c6f62616c20696e646578206f60448201526b7574206f6620626f756e647360a01b6064820152608401610adb565b600882815481106115d6576115d6613ffc565b90600052602060002001549050919050565b6000806116686116627f3d6de15e9ab4c69db884258527440f03369a1ae976f65f7c1c6bfdf5fe414d14336040805160208101939093526001600160a01b0390911690820152606081018990526080810188905260a0810187905260c0015b60405160208183030381529060405280519060200120612939565b84612987565b6018546001600160a01b039081169116149150505b949350505050565b6000818152600260205260408120546001600160a01b031680610cc35760405162461bcd60e51b815260206004820152602960248201527f4552433732313a206f776e657220717565727920666f72206e6f6e657869737460448201526832b73a103a37b5b2b760b91b6064820152608401610adb565b600a546001600160a01b031633146117265760405162461bcd60e51b8152600401610adb90613dcf565b600b548261173360085490565b61173d9190613eb2565b11156117805760405162461bcd60e51b8152602060048201526012602482015271455843454544535f4d41585f535550504c5960701b6044820152606401610adb565b600061178b60085490565b905060005b838110156117b8576117a68383610c5781613f75565b806117b081613f75565b915050611790565b5060008051602061403f8339815191528284836040516117da93929190613c2b565b60405180910390a1505050565b601854600160a01b900460ff166118405760405162461bcd60e51b815260206004820152601960248201527f57484954454c4953545f53414c455f4e4f545f414354495645000000000000006044820152606401610adb565b32331461185f5760405162461bcd60e51b8152600401610adb90613e04565b61186b848484846115e8565b6118b75760405162461bcd60e51b815260206004820152601f60248201527f4e4f545f454c494749424c455f464f525f57484954454c4953545f53414c45006044820152606401610adb565b8242101580156118c75750814211155b61191e5760405162461bcd60e51b815260206004820152602260248201527f4e4f545f4f4e5f57484954454c4953545f53414c455f4d494e54494e475f54496044820152614d4560f01b6064820152608401610adb565b6000851180156119495750336000908152601960205260409020548490611946908790613eb2565b11155b6119aa5760405162461bcd60e51b815260206004820152602c60248201527f455843454544535f4d41585f434c41494d45445f4e554d5f4f4e5f414444525f60448201526b4f525f42454c4f575f4f4e4560a01b6064820152608401610adb565b3485600e546119b99190613ede565b146119d65760405162461bcd60e51b8152600401610adb90613d5b565b600b54856119e360085490565b6119ed9190613eb2565b1115611a305760405162461bcd60e51b8152602060048201526012602482015271455843454544535f4d41585f535550504c5960701b6044820152606401610adb565b6000611a3b60085490565b905060005b86811015611a6857611a563383610c5781613f75565b80611a6081613f75565b915050611a40565b503360009081526019602052604081208054889290611a88908490613eb2565b909155505060405160008051602061403f83398151915290611aaf90339089908590613c2b565b60405180910390a1505050505050565b600a546001600160a01b03163314611ae95760405162461bcd60e51b8152600401610adb90613dcf565b6001600160a01b038116611b365760405162461bcd60e51b815260206004820152601460248201527353455454494e475f5a45524f5f4144445245535360601b6044820152606401610adb565b6018546001600160a01b0382811691161415611b8e5760405162461bcd60e51b815260206004820152601760248201527653455454494e475f43555252454e545f4144445245535360481b6044820152606401610adb565b601880546001600160a01b0319166001600160a01b0392909216919091179055565b600a546001600160a01b03163314611bda5760405162461bcd60e51b8152600401610adb90613dcf565b600b819055600c54600d546040805184815260208101939093528201527fcbed1efd05e1ca8a50ca2a71081d8da8d6df9fe55e1bd1ec4636ec7825ad9d44906060015b60405180910390a150565b60006001600160a01b038216611c935760405162461bcd60e51b815260206004820152602a60248201527f4552433732313a2062616c616e636520717565727920666f7220746865207a65604482015269726f206164647265737360b01b6064820152608401610adb565b506001600160a01b031660009081526003602052604090205490565b600a546001600160a01b03163314611cd95760405162461bcd60e51b8152600401610adb90613dcf565b611ce360006129a3565b565b60606000611cf283611c28565b905080611d135760408051600080825260208201909252905b509392505050565b60008167ffffffffffffffff811115611d2e57611d2e614012565b604051908082528060200260200182016040528015611d57578160200160208202803683370190505b50905060005b82811015611d0b57611d6f8582610f9f565b828281518110611d8157611d81613ffc565b602090810291909101015280611d9681613f75565b915050611d5d565b50919050565b601854600160b81b900460ff16611df85760405162461bcd60e51b815260206004820152601860248201527744555443485f41554354494f4e5f4e4f545f41435449564560401b6044820152606401610adb565b323314611e175760405162461bcd60e51b8152600401610adb90613e04565b600c5481611e2460085490565b611e2e9190613eb2565b1115611e8d5760405162461bcd60e51b815260206004820152602860248201527f455843454544535f4d41585f434c41494d45445f4e554d5f4f4e5f44555443486044820152672fa0aaa1aa24a7a760c11b6064820152608401610adb565b600081118015611e9f5750600d548111155b611ebb5760405162461bcd60e51b8152600401610adb90613d8b565b3481611ec5611412565b611ecf9190613ede565b1115611f1d5760405162461bcd60e51b815260206004820152601b60248201527f53454e44494e475f494e53554646494349454e545f45544845525300000000006044820152606401610adb565b6000611f2860085490565b905060005b82811015610c7057611f433383610c5781613f75565b80611f4d81613f75565b915050611f2d565b600a546001600160a01b03163314611f7f5760405162461bcd60e51b8152600401610adb90613dcf565b600e8190556040518181527ff5fdf7223faf019b846dd0f35f25876f2b97118d4f6e9d6787ea6d85a55c214390602001611c1d565b606060018054610d4090613f40565b611fce3383836129f5565b5050565b600a546001600160a01b03163314611ffc5760405162461bcd60e51b8152600401610adb90613dcf565b60185460ff600160a81b90910416151583151514158061201e575081600f5414155b8061202b57508060105414155b6120825760405162461bcd60e51b815260206004820152602260248201527f53455454494e475f43555252454e545f5055424c49435f53414c455f434f4e46604482015261494760f01b6064820152608401610adb565b60188054931515600160a81b0260ff60a81b1990941693909317909255600f55601055565b6120b133836125f4565b6120cd5760405162461bcd60e51b8152600401610adb90613e30565b6120d984848484612ac4565b50505050565b600a546001600160a01b031633146121095760405162461bcd60e51b8152600401610adb90613dcf565b60185460ff600160b81b909104161515811515141561213a5760405162461bcd60e51b8152600401610adb90613d24565b60188054911515600160b81b0260ff60b81b19909216919091179055565b600a546001600160a01b031633146121825760405162461bcd60e51b8152600401610adb90613dcf565b60185460ff600160b01b90910416151581151514156121b35760405162461bcd60e51b8152600401610adb90613d24565b60188054911515600160b01b0260ff60b01b19909216919091179055565b6000818152600260205260409020546060906001600160a01b031661222b5760405162461bcd60e51b815260206004820152601060248201526f544f4b454e5f4e4f545f45584953545360801b6044820152606401610adb565b601a61223683612af7565b604051602001612247929190613b47565b6040516020818303038152906040529050919050565b600a546001600160a01b031633146122875760405162461bcd60e51b8152600401610adb90613dcf565b60185460ff600160a01b90910416151581151514156122b85760405162461bcd60e51b8152600401610adb90613d24565b60188054911515600160a01b0260ff60a01b19909216919091179055565b600a546001600160a01b031633146123005760405162461bcd60e51b8152600401610adb90613dcf565b601195909555601293909355601391909155601455601555601655565b600a546001600160a01b031633146123475760405162461bcd60e51b8152600401610adb90613dcf565b6001600160a01b0381166123945760405162461bcd60e51b815260206004820152601460248201527353455454494e475f5a45524f5f4144445245535360601b6044820152606401610adb565b6017546001600160a01b03828116911614156123ec5760405162461bcd60e51b815260206004820152601760248201527653455454494e475f43555252454e545f4144445245535360481b6044820152606401610adb565b601780546001600160a01b0319166001600160a01b0392909216919091179055565b60008061246a6116627f5fee043e473fb3b6f816b06a54a86848a8ed9966a23ce6a131201cd57be18a38336040805160208101939093526001600160a01b0390911690820152606081018890526080810187905260a001611647565b6018546001600160a01b0391821691161495945050505050565b600a546001600160a01b031633146124ae5760405162461bcd60e51b8152600401610adb90613dcf565b6001600160a01b0381166125135760405162461bcd60e51b815260206004820152602660248201527f4f776e61626c653a206e6577206f776e657220697320746865207a65726f206160448201526564647265737360d01b6064820152608401610adb565b6112fb816129a3565b611fce828260405180602001604052806000815250612bf5565b60006001600160e01b031982166380ac58cd60e01b148061256757506001600160e01b03198216635b5e139f60e01b145b80610cc357506301ffc9a760e01b6001600160e01b0319831614610cc3565b600081815260046020526040902080546001600160a01b0319166001600160a01b03841690811790915581906125bb82611685565b6001600160a01b03167f8c5be1e5ebec7d5bd14f71427d1e84f3dd0314c0f7b2291e5b200ac8c7c3b92560405160405180910390a45050565b6000818152600260205260408120546001600160a01b031661266d5760405162461bcd60e51b815260206004820152602c60248201527f4552433732313a206f70657261746f7220717565727920666f72206e6f6e657860448201526b34b9ba32b73a103a37b5b2b760a11b6064820152608401610adb565b600061267883611685565b9050806001600160a01b0316846001600160a01b031614806126b35750836001600160a01b03166126a884610dc3565b6001600160a01b0316145b8061167d57506001600160a01b0380821660009081526005602090815260408083209388168352929052205460ff1661167d565b826001600160a01b03166126fa82611685565b6001600160a01b0316146127625760405162461bcd60e51b815260206004820152602960248201527f4552433732313a207472616e73666572206f6620746f6b656e2074686174206960448201526839903737ba1037bbb760b91b6064820152608401610adb565b6001600160a01b0382166127c45760405162461bcd60e51b8152602060048201526024808201527f4552433732313a207472616e7366657220746f20746865207a65726f206164646044820152637265737360e01b6064820152608401610adb565b6127cf838383612c28565b6127da600082612586565b6001600160a01b0383166000908152600360205260408120805460019290612803908490613efd565b90915550506001600160a01b0382166000908152600360205260408120805460019290612831908490613eb2565b909155505060008181526002602052604080822080546001600160a01b0319166001600160a01b0386811691821790925591518493918716917fddf252ad1be2c89b69c2b068fc378daa952ba7f163c4a11628f55a4df523b3ef91a4505050565b600061289d82611685565b90506128ab81600084612c28565b6128b6600083612586565b6001600160a01b03811660009081526003602052604081208054600192906128df908490613efd565b909155505060008281526002602052604080822080546001600160a01b0319169055518391906001600160a01b038416907fddf252ad1be2c89b69c2b068fc378daa952ba7f163c4a11628f55a4df523b3ef908390a45050565b6000610cc3612946612ce0565b8360405161190160f01b6020820152602281018390526042810182905260009060620160405160208183030381529060405280519060200120905092915050565b60008060006129968585612e07565b91509150611d0b81612e77565b600a80546001600160a01b038381166001600160a01b0319831681179093556040519116919082907f8be0079c531659141344cd1fd0a4f28419497f9722a3daafe3b4186f6b6457e090600090a35050565b816001600160a01b0316836001600160a01b03161415612a575760405162461bcd60e51b815260206004820152601960248201527f4552433732313a20617070726f766520746f2063616c6c6572000000000000006044820152606401610adb565b6001600160a01b03838116600081815260056020908152604080832094871680845294825291829020805460ff191686151590811790915591519182527f17307eab39ab6107e8899845ad3d59bd9653f200f220920489ca2b5937696c31910160405180910390a3505050565b612acf8484846126e7565b612adb84848484613032565b6120d95760405162461bcd60e51b8152600401610adb90613cd2565b606081612b1b5750506040805180820190915260018152600360fc1b602082015290565b8160005b8115612b455780612b2f81613f75565b9150612b3e9050600a83613eca565b9150612b1f565b60008167ffffffffffffffff811115612b6057612b60614012565b6040519080825280601f01601f191660200182016040528015612b8a576020820181803683370190505b5090505b841561167d57612b9f600183613efd565b9150612bac600a86613f90565b612bb7906030613eb2565b60f81b818381518110612bcc57612bcc613ffc565b60200101906001600160f81b031916908160001a905350612bee600a86613eca565b9450612b8e565b612bff838361313c565b612c0c6000848484613032565b610f695760405162461bcd60e51b8152600401610adb90613cd2565b6001600160a01b038316612c8357612c7e81600880546000838152600960205260408120829055600182018355919091527ff3f7a9fe364faab93b216da50a3214154f22a0a2b415b23a84c8169e8b636ee30155565b612ca6565b816001600160a01b0316836001600160a01b031614612ca657612ca6838261328a565b6001600160a01b038216612cbd57610f6981613327565b826001600160a01b0316826001600160a01b031614610f6957610f6982826133d6565b6000306001600160a01b037f000000000000000000000000000000000000000000000000000000000000000016148015612d3957507f000000000000000000000000000000000000000000000000000000000000000046145b15612d6357507f000000000000000000000000000000000000000000000000000000000000000090565b50604080517f00000000000000000000000000000000000000000000000000000000000000006020808301919091527f0000000000000000000000000000000000000000000000000000000000000000828401527f000000000000000000000000000000000000000000000000000000000000000060608301524660808301523060a0808401919091528351808403909101815260c0909201909252805191012090565b600080825160411415612e3e5760208301516040840151606085015160001a612e328782858561341a565b94509450505050612e70565b825160401415612e685760208301516040840151612e5d868383613507565b935093505050612e70565b506000905060025b9250929050565b6000816004811115612e8b57612e8b613fd0565b1415612e945750565b6001816004811115612ea857612ea8613fd0565b1415612ef65760405162461bcd60e51b815260206004820152601860248201527f45434453413a20696e76616c6964207369676e617475726500000000000000006044820152606401610adb565b6002816004811115612f0a57612f0a613fd0565b1415612f585760405162461bcd60e51b815260206004820152601f60248201527f45434453413a20696e76616c6964207369676e6174757265206c656e677468006044820152606401610adb565b6003816004811115612f6c57612f6c613fd0565b1415612fc55760405162461bcd60e51b815260206004820152602260248201527f45434453413a20696e76616c6964207369676e6174757265202773272076616c604482015261756560f01b6064820152608401610adb565b6004816004811115612fd957612fd9613fd0565b14156112fb5760405162461bcd60e51b815260206004820152602260248201527f45434453413a20696e76616c6964207369676e6174757265202776272076616c604482015261756560f01b6064820152608401610adb565b60006001600160a01b0384163b1561313457604051630a85bd0160e11b81526001600160a01b0385169063150b7a0290613076903390899088908890600401613bee565b602060405180830381600087803b15801561309057600080fd5b505af19250505080156130c0575060408051601f3d908101601f191682019092526130bd918101906138d9565b60015b61311a573d8080156130ee576040519150601f19603f3d011682016040523d82523d6000602084013e6130f3565b606091505b5080516131125760405162461bcd60e51b8152600401610adb90613cd2565b805181602001fd5b6001600160e01b031916630a85bd0160e11b14905061167d565b50600161167d565b6001600160a01b0382166131925760405162461bcd60e51b815260206004820181905260248201527f4552433732313a206d696e7420746f20746865207a65726f20616464726573736044820152606401610adb565b6000818152600260205260409020546001600160a01b0316156131f75760405162461bcd60e51b815260206004820152601c60248201527f4552433732313a20746f6b656e20616c7265616479206d696e746564000000006044820152606401610adb565b61320360008383612c28565b6001600160a01b038216600090815260036020526040812080546001929061322c908490613eb2565b909155505060008181526002602052604080822080546001600160a01b0319166001600160a01b03861690811790915590518392907fddf252ad1be2c89b69c2b068fc378daa952ba7f163c4a11628f55a4df523b3ef908290a45050565b6000600161329784611c28565b6132a19190613efd565b6000838152600760205260409020549091508082146132f4576001600160a01b03841660009081526006602090815260408083208584528252808320548484528184208190558352600790915290208190555b5060009182526007602090815260408084208490556001600160a01b039094168352600681528383209183525290812055565b60085460009061333990600190613efd565b6000838152600960205260408120546008805493945090928490811061336157613361613ffc565b90600052602060002001549050806008838154811061338257613382613ffc565b60009182526020808320909101929092558281526009909152604080822084905585825281205560088054806133ba576133ba613fe6565b6001900381819060005260206000200160009055905550505050565b60006133e183611c28565b6001600160a01b039093166000908152600660209081526040808320868452825280832085905593825260079052919091209190915550565b6000807f7fffffffffffffffffffffffffffffff5d576e7357a4501ddfe92f46681b20a083111561345157506000905060036134fe565b8460ff16601b1415801561346957508460ff16601c14155b1561347a57506000905060046134fe565b6040805160008082526020820180845289905260ff881692820192909252606081018690526080810185905260019060a0016020604051602081039080840390855afa1580156134ce573d6000803e3d6000fd5b5050604051601f1901519150506001600160a01b0381166134f7576000600192509250506134fe565b9150600090505b94509492505050565b6000806001600160ff1b03831660ff84901c601b016135288782888561341a565b935093505050935093915050565b82805461354290613f40565b90600052602060002090601f01602090048101928261356457600085556135aa565b82601f1061357d5782800160ff198235161785556135aa565b828001600101855582156135aa579182015b828111156135aa57823582559160200191906001019061358f565b506114e69291505b808211156114e657600081556001016135b2565b80356001600160a01b03811681146135dd57600080fd5b919050565b803580151581146135dd57600080fd5b600082601f83011261360357600080fd5b813567ffffffffffffffff81111561361d5761361d614012565b613630601f8201601f1916602001613e81565b81815284602083860101111561364557600080fd5b816020850160208301376000918101602001919091529392505050565b60006020828403121561367457600080fd5b61367d826135c6565b9392505050565b6000806040838503121561369757600080fd5b6136a0836135c6565b91506136ae602084016135c6565b90509250929050565b6000806000606084860312156136cc57600080fd5b6136d5846135c6565b92506136e3602085016135c6565b9150604084013590509250925092565b6000806000806080858703121561370957600080fd5b613712856135c6565b9350613720602086016135c6565b925060408501359150606085013567ffffffffffffffff81111561374357600080fd5b61374f878288016135f2565b91505092959194509250565b6000806040838503121561376e57600080fd5b613777836135c6565b91506136ae602084016135e2565b6000806040838503121561379857600080fd5b6137a1836135c6565b946020939093013593505050565b600080604083850312156137c257600080fd5b823567ffffffffffffffff808211156137da57600080fd5b818501915085601f8301126137ee57600080fd5b813560208282111561380257613802614012565b8160051b9250613813818401613e81565b8281528181019085830185870184018b101561382e57600080fd5b600096505b84871015613851578035835260019690960195918301918301613833565b50965061386190508782016135c6565b9450505050509250929050565b60006020828403121561388057600080fd5b61367d826135e2565b60008060006060848603121561389e57600080fd5b6138a7846135e2565b95602085013595506040909401359392505050565b6000602082840312156138ce57600080fd5b813561367d81614028565b6000602082840312156138eb57600080fd5b815161367d81614028565b6000806020838503121561390957600080fd5b823567ffffffffffffffff8082111561392157600080fd5b818501915085601f83011261393557600080fd5b81358181111561394457600080fd5b86602082850101111561395657600080fd5b60209290920196919550909350505050565b60006020828403121561397a57600080fd5b5035919050565b6000806040838503121561399457600080fd5b823591506136ae602084016135c6565b600080604083850312156139b757600080fd5b50508035926020909101359150565b6000806000606084860312156139db57600080fd5b8335925060208401359150604084013567ffffffffffffffff811115613a0057600080fd5b613a0c868287016135f2565b9150509250925092565b60008060008060808587031215613a2c57600080fd5b843593506020850135925060408501359150606085013567ffffffffffffffff81111561374357600080fd5b600080600080600060a08688031215613a7057600080fd5b85359450602086013593506040860135925060608601359150608086013567ffffffffffffffff811115613aa357600080fd5b613aaf888289016135f2565b9150509295509295909350565b60008060008060008060c08789031215613ad557600080fd5b505084359660208601359650604086013595606081013595506080810135945060a0013592509050565b60008151808452613b17816020860160208601613f14565b601f01601f19169290920160200192915050565b60008151613b3d818560208601613f14565b9290920192915050565b600080845481600182811c915080831680613b6357607f831692505b6020808410821415613b8357634e487b7160e01b86526022600452602486fd5b818015613b975760018114613ba857613bd5565b60ff19861689528489019650613bd5565b60008b81526020902060005b86811015613bcd5781548b820152908501908301613bb4565b505084890196505b505050505050613be58185613b2b565b95945050505050565b6001600160a01b0385811682528416602082015260408101839052608060608201819052600090613c2190830184613aff565b9695505050505050565b6001600160a01b039390931683526020830191909152604082015260600190565b6020808252825182820181905260009190848201906040850190845b81811015613c8457835183529284019291840191600101613c68565b50909695505050505050565b60208152816020820152818360408301376000818301604090810191909152601f909201601f19160101919050565b60208152600061367d6020830184613aff565b60208082526032908201527f4552433732313a207472616e7366657220746f206e6f6e20455243373231526560408201527131b2b4bb32b91034b6b83632b6b2b73a32b960711b606082015260800190565b60208082526018908201527f53455454494e475f544f5f43555252454e545f53544154450000000000000000604082015260600190565b60208082526016908201527553454e44494e475f494e56414c49445f45544845525360501b604082015260600190565b60208082526024908201527f455843454544535f4d41585f4d494e545f5045525f54585f4f525f42454c4f576040820152635f4f4e4560e01b606082015260800190565b6020808252818101527f4f776e61626c653a2063616c6c6572206973206e6f7420746865206f776e6572604082015260600190565b60208082526012908201527110d05313115497d254d7d0d3d395149050d560721b604082015260600190565b60208082526031908201527f4552433732313a207472616e736665722063616c6c6572206973206e6f74206f6040820152701ddb995c881b9bdc88185c1c1c9bdd9959607a1b606082015260800190565b604051601f8201601f1916810167ffffffffffffffff81118282101715613eaa57613eaa614012565b604052919050565b60008219821115613ec557613ec5613fa4565b500190565b600082613ed957613ed9613fba565b500490565b6000816000190483118215151615613ef857613ef8613fa4565b500290565b600082821015613f0f57613f0f613fa4565b500390565b60005b83811015613f2f578181015183820152602001613f17565b838111156120d95750506000910152565b600181811c90821680613f5457607f821691505b60208210811415611d9e57634e487b7160e01b600052602260045260246000fd5b6000600019821415613f8957613f89613fa4565b5060010190565b600082613f9f57613f9f613fba565b500690565b634e487b7160e01b600052601160045260246000fd5b634e487b7160e01b600052601260045260246000fd5b634e487b7160e01b600052602160045260246000fd5b634e487b7160e01b600052603160045260246000fd5b634e487b7160e01b600052603260045260246000fd5b634e487b7160e01b600052604160045260246000fd5b6001600160e01b0319811681146112fb57600080fdfe9067a60f8b0e6f3fb9b13710495a2641d9096fcd24b2f76d2ea7b5157c27c9dba264697066735822122031118646770842816f7e65a0f371a74edafa00cb6656097ddab4e5debf7ab15c64736f6c63430008070033",
  "linkReferences": {},
  "deployedLinkReferences": {}
}